:020000040800F2
:1000000058120020CD010008D5040008CD040008D6
:10001000D1040008B10300080F0E00080000000022
:10002000000000000000000000000000B50600080D
:10003000B5030008000000005D050008090800087D
:10004000E7010008E7010008E7010008E7010008F0
:10005000E7010008E7010008E7010008E7010008E0
:10006000E7010008E7010008E7010008E7010008D0
:10007000E7010008E7010008E7010008E7010008C0
:10008000E7010008E7010008E7010008E7010008B0
:10009000E7010008E7010008E7010008E7010008A0
:1000A000E7010008E7010008E7010008E701000890
:1000B000E7010008E70100086D080008E7010008F3
:1000C000E7010008E7010008E7010008E701000870
:1000D000E7010008F1090008810A0008110B000877
:1000E000E7010008E7010008E7010008E701000850
:1000F000E7010008E7010008E7010008E701000840
:10010000E7010008E7010008E7010008E70100082F
:10011000E7010008E701000899080008C508000881
:10012000E7010008E7010008E7010008E70100080F
:1001300000F002F800F03AF80AA090E8000C8244BF
:100140008344AAF10107DA4501D100F02FF8AFF29C
:10015000090EBAE80F0013F0010F18BFFB1A43F0A5
:1001600001031847D8100000F8100000103A24BF0F
:1001700078C878C1FAD8520724BF30C830C144BF0C
:1001800004680C607047000000230024002500264E
:10019000103A28BF78C1FBD8520728BF30C148BFEA
:1001A0000B6070471FB51FBD10B510BD00F031F8D2
:1001B0001146FFF7F7FF00F0A3FF00F04FF803B47C
:1001C000FFF7F2FF03BC00F053F800000948804736
:1001D00009480047FEE7FEE7FEE7FEE7FEE7FEE729
:1001E000FEE7FEE7FEE7FEE704480549054A064B41
:1001F000704700000D08000831010008580C00206D
:1002000058120020580E0020580E002070477047EA
:100210007047754600F028F8AE460500694653461B
:1002200020F00700854618B020B5FFF7DDFFBDE8D8
:1002300020404FF000064FF000074FF000084FF04D
:10024000000B21F00701AC46ACE8C009ACE8C009DE
:10025000ACE8C009ACE8C0098D4670470446AFF36E
:1002600000802046FFF7ABFF00487047F80B0020E6
:1002700001491820ABBEFEE72600020070470000CF
:100280001FB50121042000F06BF90020ADF80A0031
:1002900040F2E730ADF808004720ADF8040001A9AE
:1002A0000E4800F053FB01210C4800F021FB012215
:1002B00011460A4800F03FFB0121084800F01EFBF0
:1002C0001E208DF8000001208DF803008DF801003C
:1002D0008DF80200684600F0FFF81FBD00080040DE
:1002E0001FB50121102000F03BF90020ADF80A00F5
:1002F00040F2BB20ADF8080041F61F40ADF8040005
:1003000001A9104800F022FB01210E4800F0F0FA8C
:10031000012211460B4800F00EFB0121094800F0B4
:10032000EDFA36208DF8000001208DF80300022040
:100330008DF8010001208DF80200684600F0CCF82D
:100340001FBD0000001000401FB50121202000F05B
:1003500007F90020ADF80A0040F2BB20ADF8080014
:1003600041F61F40ADF8040001A9104800F0EEFA74
:1003700001210E4800F0BCFA012211460B4800F0A2
:10038000DAFA0121094800F0B9FA37208DF80000A7
:1003900001208DF8030002208DF8010001208DF866
:1003A0000200684600F098F81FBD000000140040ED
:1003B00000BFFEE770472DE9F04102460025002608
:1003C000002000230024002791F803C00CF00F0543
:1003D00091F803C00CF0100CBCF1000F03D091F8A1
:1003E00002C04CEA050591F800C0BCF1000F31D005
:1003F000146800202BE04FF0010C0CFA00F3B1F868
:1004000000C00CEA03069E4220D183004FF00F0C7F
:100410000CFA03F7BC4305FA03FC4CEA040491F818
:1004200003C0BCF1280F06D14FF0010C0CFA00FC00
:10043000C2F814C00AE091F803C0BCF1480F05D11E
:100440004FF0010C0CFA00FCC2F810C0401C082848
:10045000D1D31460B1F800C0BCF1FF0F34DD546893
:1004600000202EE000F1080C4FF0010808FA0CF310
:10047000B1F800C00CEA03069E4221D183004FF080
:100480000F0C0CFA03F7BC4305FA03FC4CEA040416
:1004900091F803C0BCF1280F05D100F1080C08FA4F
:1004A0000CF8C2F8148091F803C0BCF1480F07D1D2
:1004B00000F1080C4FF0010808FA0CF8C2F810809F
:1004C000401C0828CED35460BDE8F08100BFFEE791
:1004D00000BFFEE77047000070B5002100230F2227
:1004E000C47804B3154C246804F4E064C4F5E064F3
:1004F000210AC1F10403CA40447804FA03F1847864
:100500001440214309010E4C0678A155047804F0EB
:100510001F050124AC4005786D11AD0005F1E02503
:10052000C5F8004109E0047804F01F050124AC403F
:10053000044D0678761145F8264070BD0CED00E0BC
:1005400000E400E080E100E002490143024A11605A
:10055000704700000000FA050CED00E07047000055
:1005600029B1064AD2690243044BDA6104E0034A26
:10057000D2698243014BDA617047000000100240EB
:1005800029B1064A12690243044B1A6104E0034A86
:1005900012698243014B1A6170470000001002404B
:1005A00029B1064A92690243044B9A6104E0034A66
:1005B00092698243014B9A6170470000001002402B
:1005C00029B1064AD2680243044BDA6004E0034AC8
:1005D000D2688243014BDA6070470000001002408D
:1005E00030B500210022002400232D4D6D6805F058
:1005F0000C0121B1042905D0082923D105E0294D9A
:10060000056022E0274D05601FE0254D6D6805F46B
:100610007012234D6D6805F48034022505EB92427B
:100620001CB9214D554305600BE01D4D6D6805F467
:1006300000351DB11C4D5543056002E0194D554371
:10064000056002E0174D056000BF00BF144D6D68E6
:1006500005F0F0010909154D6B5C0568DD4045604A
:100660000F4D6D6805F4E061090A104D6B5C45683B
:10067000DD4085600A4D6D6805F46051C90A0B4D77
:100680006B5C4568DD40C560054D6D6805F4404113
:10069000890B074D6B5CC568B5FBF3F5056130BD93
:1006A0000010024000127A0000093D0018000020EE
:1006B00028000020704710B5044603E014F8010B31
:1006C00000F0CEF920780028F8D110BD10B504460E
:1006D00003E014F8010B00F00BFA20780028F8D1A1
:1006E00010BD10B5044603E014F8010B00F03CFA0D
:1006F00020780028F8D110BD10B500F001F810BD29
:100700000CB50020019000903348006840F4803020
:100710003149086000BF3048006800F400300090A4
:100720000198401C0190009818B90198B0F5A06F8D
:10073000F1D12948006800F4003010B10120009088
:1007400001E0002000900098012843D12348006870
:1007500040F01000214908600846006820F00300BE
:1007600008600846006840F0020008601A484068C7
:10077000194948600846406848600846406840F4A7
:10078000806048600846406820F47C104860084655
:10079000406840F4E81048600846006840F0807007
:1007A000086000BF0C48006800F000700028F9D015
:1007B0000948406820F0030007494860084640683F
:1007C00040F00200486000BF0348406800F00C00A1
:1007D0000828F9D10CBD00000010024000200240A2
:1007E000042808D14FF0E021096941F004014FF0DD
:1007F000E022116107E04FF0E021096921F00401D6
:100800004FF0E022116170477047000010B51348A7
:10081000006840F00100114908600846406810492E
:1008200008400E494860084600680E4908400B49D8
:1008300008600846006820F4802008600846406888
:1008400020F4FE0048604FF41F008860FFF754FF5B
:100850004FF000600449086010BD00000010024025
:100860000000FFF8FFFFF6FE08ED00E010B509E01C
:1008700000F0F0FA0121074800F03DF8002105489A
:1008800000F03CF80121034800F044F80028EFD1C3
:1008900010BD00000008004010B509E000F09EFB0C
:1008A0000121074800F027F80021054800F026F84C
:1008B0000121034800F02EF80028EFD110BD000000
:1008C0000010004010B509E000F0F4FA01210748DB
:1008D00000F011F80021054800F010F8012103484C
:1008E00000F018F80028EFD110BD000000140040FF
:1008F000CA4302827047CA430282704721B102880C
:1009000042F00102028004E002884FF6FE731A40B2
:100910000280704730B50246002000230024158A6B
:1009200005EA0103958905EA010413B10CB1012020
:1009300000E0002030BD1AB183890B43838102E0BF
:1009400083898B43838170478184704700220288AA
:100950001D4B98420ED01D4B98420BD0B0F1804FEA
:1009600008D01B4B984205D01A4B984202D01A4B24
:10097000984204D14FF68F731A404B881A43174B95
:10098000984207D0164B984204D04FF6FF431A40C6
:10099000CB881A4302808B8883850B8803850A4B9A
:1009A00098420BD0094B984208D00E4B984205D084
:1009B0000D4B984202D00D4B984201D10B7A038621
:1009C0000123838270470000002C01400034014065
:1009D0000004004000080040000C004000100040EF
:1009E0000014004000400140004401400048014024
:1009F00010B540F22551174800F045F9B8B1154837
:100A000000F0FCF9C4B21448007868B9002113481A
:100A1000FFF79AFF1048807830B901210F48FFF79F
:100A20006DFF01200C498870204600F0FDF9082177
:100A3000084800F01BF9012806D1064800F0DEF94D
:100A40000821044800F0A0F840F22551014800F0C8
:100A5000A4F810BD0038014008080020000800403C
:100A600010B504462146054800F0CDF900BF8021AD
:100A7000024800F0FBF80028F9D010BD0038014012
:100A800010B540F22551174800F0FDF8B8B11548EF
:100A900000F0B4F9C4B21448007868B900211348D2
:100AA000FFF752FF1048807830B901210F48FFF757
:100AB00025FF01200C498870204600F0E5F9082147
:100AC000084800F0D3F8012806D1064800F096F94E
:100AD0000821044800F058F840F22551014800F080
:100AE0005CF810BD004400401A04002000140040CF
:100AF00010B504462146054800F085F900BF802165
:100B0000024800F0B3F80028F9D010BD00440040BE
:100B100010B540F22551114800F0B5F8B8B10F48B2
:100B200000F06CF9C4B20E48007868B900210D4895
:100B3000FFF70AFF0A48807830B901210948FFF71A
:100B4000DDFE012006498870204600F031FA40F2AF
:100B50002551024800F021F810BD00000048004077
:100B60002C0000200010004010B504462146054826
:100B700000F049F900BF8021024800F077F8002812
:100B8000F9D010BD0048004001F40072B2F5007FBA
:100B900000D100BFCA430280704710B50022002375
:100BA00040F66A14A14200D100BF0A120124944009
:100BB000A3B2DC43048010BD21B1828942F400520B
:100BC000828104E082894DF6FF731A40828170476A
:100BD00010B504462048844209D101218803FFF75B
:100BE000EFFC00214FF48040FFF7EAFC32E01B48A5
:100BF000844209D101214804FFF7C2FC00214FF4CF
:100C00000030FFF7BDFC25E01548844209D10121E1
:100C10008804FFF7B5FC00214FF48020FFF7B0FCFB
:100C200018E01048844209D10121C804FFF7A8FC4C
:100C300000214FF40020FFF7A3FC0BE00A48844298
:100C400008D101210805FFF79BFC00214FF480101B
:100C5000FFF796FC10BD0000003801400044004042
:100C600000480040004C0040005000400246002078
:100C7000B1F5007F00D100BF13880B400BB10120FC
:100C800000E00020704770B50246002400230025D4
:100C9000002040F66A16B14200D100BFC1F34215F0
:100CA00001F01F03012606FA03F3012D02D19689F4
:100CB000334006E0022D02D1168A334001E0968AC5
:100CC00033400C12012606FA04F41688344013B19E
:100CD0000CB1012000E0002070BDF0B503460024F7
:100CE00000260025002040F66A17B94200D100BF57
:100CF0001846C1F3421401F01F06012707FA06F552
:100D0000012C01D10C3004E0022C01D1103000E0A4
:100D100014301AB107682F43076002E00768AF4339
:100D20000760F0BD2DE9F04786B005460E46002469
:100D3000A24600BFA1460027B08900B100BF2F46E0
:100D40002C8A4CF6FF700440F08804432C82AC8956
:100D50004EF6F3100440B088318908437189084386
:100D60000443AC81AC8A4FF6FF400440B089044391
:100D7000AC8201A8FFF734FC1F48874202D1DDF89E
:100D800010A001E0DDF80CA0A88900F4004040B1FB
:100D90000AEBCA0000EB0A1031684900B0FBF1F819
:100DA00007E00AEBCA0000EB0A1031688900B0FBCB
:100DB000F1F86420B8FBF0F004012009642101FB84
:100DC0001089A88900F4004040B1322000EBC9002E
:100DD000B0FBF1F000F00700044308E0322000EB24
:100DE00009106421B0FBF1F000F00F0004432C81E6
:100DF00006B0BDE8F0870000003801400146888851
:100E0000C0F308007047C1F308028280704700BF3A
:100E1000FEE7000000200349487008708880887051
:100E2000704700000808002010B504460848808874
:100E3000B0F57A7F02DB00F00DF810BD0448818820
:100E40008088401C024A9080901D445400BFF4E703
:100E5000080800200021064882888088401C044B36
:100E60009880981D81540120194608704870704779
:100E700008080020002003494870087088808870A6
:100E8000704700001A04002010B504460848808806
:100E9000B0F57A7F02DB00F00DF810BD04488188C0
:100EA0008088401C024A9080901D445400BFF4E7A3
:100EB0001A0400200021064882888088401C044BC8
:100EC0009880981D81540120194608704870704719
:100ED0001A04002000B587B001210420FFF760FB51
:100EE00001214804FFF73CFB0420ADF81800032063
:100EF0008DF81A0018208DF81B0006A92448FFF76A
:100F00005AFA0820ADF8180004208DF81B0006A935
:100F10001F48FFF750FA01214804FFF731FB002179
:100F20004FF40030FFF72CFB4FF4E130029000202B
:100F3000ADF80C00ADF80E00ADF81000ADF81400DF
:100F40000C20ADF8120002A91248FFF7EBFE0122B7
:100F500040F225510F48FFF7C0FE01210D48FFF771
:100F60002BFE26208DF8040003208DF805008DF857
:100F7000060001208DF8070001A8FFF7ADFAFFF782
:100F8000E3F900210448FFF7B9FC07B000BD0000F9
:100F900000080140004400400014004000200349C4
:100FA0004870087088808870704700002C0000200E
:100FB00010B5044608488088B0F57A7F02DB00F05F
:100FC0000DF810BD044881888088401C024A90803A
:100FD000901D445400BFF4E72C0000200021064877
:100FE00082888088401C044B9880981D8154012081
:100FF00019460870487070472C00002000B587B073
:1010000001210820FFF7CCFA01218804FFF7A8FA94
:101010002748FFF7DDFD4FF48060ADF8180003208E
:101020008DF81A0018208DF81B0006A92148FFF73B
:10103000C2F94FF40060ADF8180004208DF81B00D1
:1010400006A91C48FFF7B7F94FF41650029000208C
:10105000ADF80C00ADF80E00ADF81000ADF81400BE
:101060000C20ADF8120002A91148FFF75BFE012227
:1010700040F225510E48FFF730FE01210C48FFF7E2
:101080009BFD27208DF8040003208DF80500022029
:101090008DF8060001208DF8070001A8FFF71CFA63
:1010A000FFF71EF900210448FFF728FC07B000BD38
:1010B00000480040000C01400010004010B56FF0E7
:1010C0000400FFF78DFB0A4800680A49B0FBF1F005
:1010D000094908700846007800EB4001C1EBC010D8
:1010E0004FF6FF7101EAC0000449088010BD0000FE
:1010F0000000002000127A001400002016000020DA
:1011000000BF00BFFFF7DAFF4FF4A060FFF71CFA43
:1011100000F03AF8FFF7DEFEFFF770FF00201749F6
:101120004870174948701749487025E014484078BE
:1011300001280DD11248801DFFF7BDFA1048801D0F
:10114000FFF7C4FA0E48801DFFF7CBFAFFF762FEE7
:101150000A484078012805D10848801DFFF7ABFAFE
:10116000FFF788FE07484078012805D10548801D13
:10117000FFF7A1FAFFF712FFD8E700001A040020DA
:10118000080800202C00002000B587B0012144F29F
:101190000400FFF705FA4FF40070ADF818000320C3
:1011A0008DF81A0018208DF81B0006A92048FFF7BB
:1011B00002F94FF48060ADF8180004208DF81B0090
:1011C00006A91B48FFF7F7F825208DF80400032037
:1011D0008DF805008DF8060001208DF8070001A8A4
:1011E000FFF77AF94FF4E13002900020ADF80C00DF
:1011F000ADF80E00ADF81000ADF814000C20ADF8FD
:10120000120002A90B48FFF78DFD012240F2255183
:101210000848FFF762FD01210648FFF7CDFCFFF704
:101220002FF800210448FFF769FB07B000BD00005C
:101230000008014000380140000800405C1200082E
:10124000000000202C0000006C010008881200083B
:101250002C0000202C1200008801000800A24A0483
:101260000000000000000000010203040607080956
:10127000000000000000000001020304010203045A
:08128000060708090204060834
:04000005080001CD21
:00000001FF
