:020000040800F2
:10000000C018002045010008491C000855110008CF
:10001000451C00089107000801400008000000008E
:10002000000000000000000000000000CD3A0008C1
:10003000C50B000800000000291D0008E13B000876
:100040005F0100085F0100085F0100080D21000842
:100050005F0100085F0100085F0100085F01000800
:100060005F0100085F0100085F01000895090008B2
:100070005F0100085F0100085F0100085F010008E0
:100080005F0100085F0100085F0100085F010008D0
:100090005F0100085F0100085F0100085F010008C0
:1000A0005F0100085F0100085F0100085F010008B0
:1000B0005F0100085F0100085F0100085F010008A0
:1000C0005F0100085F0100085F0100085F01000890
:1000D0005F0100085F0100085F0100085F01000880
:1000E0005F0100085F0100085F0100085F01000870
:1000F0005F0100085F0100085F0100085F01000860
:100100005F010008512300085F0100085F0100083B
:100110005F0100085F010008453C00085F0100081E
:100120005F0100085F0100085F0100085F0100082F
:10013000DFF80CD000F0B8FA00480047C9580008B2
:10014000C01800200648804706480047FEE7FEE743
:10015000FEE7FEE7FEE7FEE7FEE7FEE7FEE7FEE777
:10016000E53B0008310100082DE9F05F054600205D
:1001700092469B4688460646814640241BE0284618
:1001800041464746224600F0DBF853465A46C01A1D
:10019000914110D311461846224600F0C2F82D1A9C
:1001A00067EB01084F4622460120002100F0B9F814
:1001B00017EB00094E41201EA4F10104DFDC484684
:1001C00031462A464346BDE8F09F40EA01039B07BB
:1001D00003D009E008C9121F08C0042AFAD203E0BC
:1001E00011F8013B00F8013B521EF9D27047D2B220
:1001F00001E000F8012B491EFBD270470022F6E710
:1002000010B513460A4604461946FFF7F0FF20468C
:1002100010BD2DE9FE4F81EA030404F0004421F0F3
:10022000004100944FF0000B23F0004350EA01041A
:100230005ED052EA03045BD0C3F30A54C1F30A55FB
:100240002C44A4F2F3340194A0FB0254C1F3130133
:1002500041F48011C3F3130343F4801301FB024400
:1002600000FB034E840A970A44EA815447EA835705
:10027000A4FB076802958D0A05FB07854FEA932CBE
:1002800004FB0C542705029D4FEA065847EA16372F
:10029000B5EB08056EEB070C870E920E47EA811747
:1002A00042EA8312A7FB0201B6EB0B0164EB0004E8
:1002B0002B0D43EA0C335E1844EB1C50DA465146D2
:1002C000E7FB0201C5F313044FEA0B3343EA14536F
:1002D0004FEA0432019C43EA0603A4F10C040294A1
:1002E000009CCDE900B400F04AF803B0BDE8F08FFF
:1002F00000200146F9E730B50B46014600202022D8
:10030000012409E021FA02F59D4205D303FA02F522
:10031000491B04FA02F52844151EA2F10102F1DC82
:1003200030BD202A04DB203A00FA02F10020704799
:100330009140C2F1200320FA03F319439040704723
:10034000202A04DB203A21FA02F00021704721FA2A
:1003500002F3D040C2F12002914008431946704791
:1003600010B5141E73F1000408DA401C41F10001BD
:1003700092185B411A4301D120F0010010BD2DE914
:10038000F04D92469B4611B1B1FA81F202E0B0FA0B
:1003900080F220329046FFF7C4FF04460F4640EA41
:1003A0000A0041EA0B0153465A46084313D011464E
:1003B00053EA010019D0C8F140025046FFF7C0FFD0
:1003C00005460E46504659464246FFF7AAFF0843E7
:1003D00005D0012004E020463946BDE8F08D00201C
:1003E000054346EAE0762C4337430A986305E40A5E
:1003F000A0EB08000022FD0A44EA47540A3002D567
:1004000000200146E9E7010510196941DDE90845C9
:1004100000196941BDE8F04DA2E72DE9FE4F804685
:1004200081EA0300C00F0C46009021F0004123F048
:100430000045B8EB0200A94105D24046214690464E
:100440001C460B46024623F00040104347D0270DC0
:10045000C7F30A00C3F30A510290401A01904028E2
:100460006BDAC3F3130040F4801B0098924620B16E
:100470000023D2EB030A63EB0B0B01985946C0F142
:1004800040025046FFF74DFF06460D46504659467E
:10049000019A00F01BF910EB08006141002487EA83
:1004A000115284EAE7731A4340D0009A62B3019A6A
:1004B000012A4FEA075215DC001B61EB02014FF0E5
:1004C000004202EA0752CDE90042001C41F58011CA
:1004D00032462B46FFF753FF03B0BDE8F08F40468E
:1004E0002146F9E7001B61EB0201001C41F5801376
:1004F00000185B412018A2F5001747EB030140EA02
:10050000D570B6196D4111E06D084FEA360645EA1F
:10051000C0754FEA0752001B61EB0201001C41F558
:10052000801149084FEA30000019514132462B46EC
:1005300003B0BDE8F04FFFF713BF00980122400061
:100540000023D0EB020263EBE073009821464FEAF0
:10055000E074B8EB000061EB0401E9E783F00043CD
:100560005BE781F0004158E72DE9F04D81EA030493
:1005700004F0004B21F0004514464FF0000A23F030
:10058000004150EA050220D054EA01021DD0C5F313
:100590000A570246C5F31303C1F31300C1F30A5609
:1005A00040F4801543F48013A7EB0608101BD646D1
:1005B00008F2FD3873EB050002D308F1010801E0F1
:1005C00092185B41B8F1000F03DA00200146BDE844
:1005D000F08D00204FF48011064684460EE0171B74
:1005E00073EB050705D3121B63EB050306434CEAC7
:1005F000010C49084FEA300092185B4150EA0107AC
:10060000EDD152EA030012D082EA040083EA050128
:10061000084305D0101BAB4106D20122002306E09F
:1006200000224FF0004302E06FF0010253101AEB7A
:1006300006004CEB085110EB0A0041EB0B01BDE842
:10064000F04DFFF78DBEC1F30A52C1F3130140F222
:10065000FF3341F480119A4202DA002001467047CC
:1006600040F233439A42A2F2334202DC5242FFF795
:1006700067BEFFF756BE000030B5041E71F10004DE
:1006800004DB4FF00044404264EB0101141E73F19F
:10069000000405DB1C464FF00043524263EB0403A9
:1006A000994208BF904230BD064C074D06E0E06815
:1006B00040F0010394E8070098471034AC42F6D3A9
:1006C000FFF73AFDB8980008D8980008202A06DB02
:1006D000CB17203A41FA02F043EAE07306E041FA10
:1006E00002F3D040C2F120029140084319467047FE
:1006F00070B58C1810F8015B15F0070301D110F8E4
:10070000013B2A1106D110F8012B03E010F8016B10
:1007100001F8016B5B1EF9D12B0705D40023521E93
:100720000DD401F8013BFAE710F8013BCB1A921CFB
:1007300003E013F8015B01F8015B521EF9D5A142F9
:10074000D8D3002070BD10B5012001F01FFB0020A0
:1007500001F01CFB10BD000008B501460020009010
:10076000034800900098084400900098008808BD55
:10077000006C004008B500220092044A0092009AE2
:1007800002440092009A116008BD0000006C004015
:1007900000BFFEE770B500254FF4803404E08020F0
:1007A00001F0C2FD00B103E02000A4F10104F6D184
:1007B00000BF0CB9032070BD40F2FF5001F06EFD88
:1007C0002846F8E770B505464FF4803407E0164830
:1007D000466B641E06F0450000B904B900E0F6E778
:1007E00000BF042001F0A0FD00B924B9042001F0ED
:1007F00055FD032070BD012001F096FD20B10120C0
:1008000001F04CFD0120F5E707480069A84201D03E
:100810001020EFE740F2FF50034988630846406923
:1008200008210840C0B2E5E70080014070B500260D
:100830004FF4803505E01148446B04F0450000B1E9
:1008400003E02800A5F10105F5D100BF15B104F0C2
:10085000040028B10326042001F020FD304670BDBD
:10086000012001F061FD18B10126012001F016FD03
:1008700040F2FF5001F012FD3046F0E700800140E9
:1008800010B505E00B48446B04F0450000B100E0F2
:10089000F8E700BF042001F047FD20B1042001F07B
:1008A000FDFC032010BD40F2FF5001F0F7FC0020DA
:1008B000F8E70000008001402DE9F04105460E46B2
:1008C0004FF0000805E01F48476B07F0450000B1F6
:1008D00000E0F8E700BF042001F026FD28B1042065
:1008E00001F0DCFC0320BDE8F081012001F01CFDDB
:1008F00020B1012001F0D2FC0120F4E71148006989
:10090000A84201D01020EEE740F2FF5001F0C6FCF3
:100910000C48446904F4604018B9200C308040460B
:10092000E1E704F4005008B11320DCE704F4804050
:1009300008B11020D7E704F4004008B10F20D2E737
:100940004046D0E70080014070B500264FF4803566
:100950000F48446B02E06D1E0D48446B04F04500E7
:1009600008B9002DF7D115B104F0040028B1032611
:10097000042001F093FC304670BD04F0400028B123
:100980000026402001F08AFC3046F5E73046F3E7C8
:100990000080014010B5022000F0E0F828B10120ED
:1009A00002490870022000F003F810BDC8000020C2
:1009B00000F0805111B10349086001E0024948602C
:1009C00070470000040402400000024021B10268A8
:1009D00042F00102026004E002684FF6FE731A4022
:1009E0000260704701684FF6FE72114001600021FD
:1009F000016041608160C1604B49884208D14A4929
:100A00000839496841F00F01474A083A51608AE0C5
:100A100045491431884208D143490839496841F0B1
:100A2000F001414A083A51607DE03F49283188424F
:100A300008D13D490839496841F470613A4A083A99
:100A4000516070E038493C31884208D13649083954
:100A5000496841F47041344A083A516063E03249D0
:100A60005031884208D130490839496841F4702131
:100A70002D4A083A516056E02B496431884208D12A
:100A800029490839496841F47001274A083A5160F8
:100A900049E025497831884208D123490839496815
:100AA00041F07061204A083A51603CE01F49884299
:100AB00006D1011F096841F00F01021F116032E0E9
:100AC0001A491431884208D11849091F096841F0B0
:100AD000F001164A121F116025E01449283188429E
:100AE00008D11249091F096841F470610F4A121FA9
:100AF000116018E00D493C31884208D10B49091FAB
:100B0000096841F47041094A121F11600BE007495E
:100B10005031884207D10549091F096841F4702105
:100B2000024A121F11607047080002400804024088
:100B300001460020002201F0805313B1054B1A68D2
:100B400001E0054B1A6802EA01030BB1012000E045
:100B500000207047000402400000024001460020CF
:100B6000002201F0805313B1054B1A6801E0054BD8
:100B70001A6802EA01030BB1012000E0002070476F
:100B8000000402400000024010B50022026847F64F
:100B9000F0739A430C6A8B6823430C6923434C69B6
:100BA00023438C692343CC6923434C6A23438C6AD7
:100BB00023431A430260CB6843600B6883604B6831
:100BC000C36010BD7047000051B18200A2F1C04265
:100BD000126842F001038200A2F1C042136009E0F2
:100BE0008200A2F1C0421268034B1A408300A3F1B5
:100BF000C0431A6070470000FEFF0F00D0E90112E9
:100C00001143C26811430269114342691143826969
:100C10001143C2691143026A1143426A1143826A55
:100C20001143C26A1143026B114302689200A2F1A0
:100C3000C0421160816808290BD101688900A1F1C7
:100C4000C041096841F0400201688900A1F1C0413A
:100C50000A60416B0968426B526841EA0211426BBB
:100C6000926841EA0221426B928941EA0241426B59
:100C7000128A41EA0251426B127D41EA0261426BE3
:100C8000926911430268521C9200A2F1C0421160A5
:100C9000C16AB1F5804F1BD1816B0968826B5268C4
:100CA00041EA0211826B926841EA0221826B128A48
:100CB00041EA0251826B127D41EA0261826B9269C4
:100CC000114302689200A2F1C042C2F8041107E089
:100CD0006FF0704201688900A1F1C041C1F80421A0
:100CE000704700002DE9FC4107460D460026002410
:100CF00000200090019008205B49086010204860A7
:100D0000402088600020C8604FF480600861084679
:100D100001F040FB1020FFF755FD044614B12046BA
:100D2000BDE8FC815148008800044F490860372025
:100D30004860402088600020C8604FF480600861EF
:100D4000084601F027FB3720FFF73CFD04460CB1B5
:100D50002046E5E74FF0FF3045490860082048602D
:100D6000302088600220C8600020086101204861AE
:100D7000084601F0AFFA00203B4908603320486084
:100D8000402088600020C8604FF4806008610846F9
:100D900001F000FB3320FFF715FD04460CB120469F
:100DA000BEE70CE04FF4001001F0BEFA38B101F0DC
:100DB000EBFA4DF82600761C022E00D306E02D48F3
:100DC000406B40F22A6108400028EBD000BF0820A9
:100DD00001F0AAFA20B1082001F060FA04209FE790
:100DE000022001F0A1FA20B1022001F057FA0220FE
:100DF00096E7202001F098FA20B1202001F04EFA69
:100E000006208DE74FF4007001F08EFA28B14FF400
:100E1000007001F043FA072082E740F2FF5001F032
:100E20003DFA00980006009901F47F4140EA012054
:100E3000009901F47F0140EA1120009940EA116015
:100E4000686001980006019901F47F4140EA0120A1
:100E5000019901F47F0140EA1120019940EA1160F3
:100E6000286020465CE70000F00F0020D40000203E
:100E7000041000200080014008B50121302000F05E
:100E800075FF4FF4F850ADF8000003208DF8020014
:100E900018208DF803006946094800F015F8042071
:100EA000ADF800006946074800F00EF801218802FD
:100EB00000F03CFF0121022000F038FF08BD0000D7
:100EC00000100140001401402DE9F04102460025C8
:100ED0000026002000230024002791F803C00CF016
:100EE0000F0591F803C00CF0100CBCF1000F03D0FB
:100EF00091F802C04CEA050591F800C0BCF1000F62
:100F000031D0146800202BE04FF0010C0CFA00F3F4
:100F1000B1F800C00CEA03069E4220D183004FF0D6
:100F20000F0C0CFA03F7BC4305FA03FC4CEA04046B
:100F300091F803C0BCF1280F06D14FF0010C0CFA58
:100F400000FCC2F814C00AE091F803C0BCF1480FDD
:100F500005D14FF0010C0CFA00FCC2F810C0401C87
:100F60000828D1D31460B1F800C0BCF1FF0F34DD04
:100F7000546800202EE000F1080C4FF0010808FA38
:100F80000CF3B1F800C00CEA03069E4221D18300A5
:100F90004FF00F0C0CFA03F7BC4305FA03FC4CEAC4
:100FA000040491F803C0BCF1280F05D100F1080C2E
:100FB00008FA0CF8C2F8148091F803C0BCF1480F8D
:100FC00007D100F1080C4FF0010808FA0CF8C2F83C
:100FD0001080401C0828CED35460BDE8F0814161E8
:100FE00070470161704700007CB511A003F00AF85A
:100FF0006A4601A91AA003F08CFD1A4908700098EE
:101000004069801E0099897800FB01F5009880787E
:10101000019900FB01F42E1B6208690812A002F07E
:10102000F1FF71081EA002F0EDFF0E4800787CBDB4
:101030000A2A2A2A2A2A2A2A2A2A2A2A2A2A2A2A30
:1010400020C9E8B1B8D0C5CFA2BBF1C8A1202A2AD7
:101050002A2A2A2A2A2A2A2A2A2A2A2A2A0D0A0057
:10106000303A00004B000020A1B75344BFA8D7DCA2
:10107000BFD5BCE43A20202531306C75204B42A10D
:10108000A30AA1B75344BFA8BFC9D3C3BFD5BCE40B
:101090003A2531306C75204B42A1A30A00000000B4
:1010A000A1B75344BFA8D2D1D3C3BFD5BCE43A251E
:1010B00031306C75204B42A1A30A0000F0B58DB011
:1010C00004463022224901A8FFF77FF86069451ED7
:1010D000642195FBF1F12846EA1705EB9272C1EB0A
:1010E000A2014FF4C87295FBF2F28F186069C11724
:1010F00000EB91718910A0EB810191B964226169C3
:1011000091FBF2F302FB131131B99200616991FB7B
:10111000F2F302FB131121B92169022901DD012635
:1011200000E0002640F26D1005FB00712069401EB2
:1011300001AA52F820000844E16808440644072048
:1011400096FBF0F100FB1160A0610DB0F0BD000056
:10115000285D000800BFFEE710B504462CB14FF42F
:1011600080510548FFF73BFF04E04FF480510248EF
:10117000FFF737FF10BD0000001401402DE9F041DA
:1011800006460F4614461D462B4622463946304633
:1011900000F02CFA04FB05F00249098800F0C5F8BC
:1011A000BDE8F0814601002001B502E00098401E34
:1011B000009000980028F9D108BD00002DE9F05FEB
:1011C000804689461646A6F120001FFA80FA1E497D
:1011D000096889881C4A1268D28801FB02F0C1178D
:1011E00000EB5171C1F3C7071748006800680AFB9C
:1011F000070B15480068C388134800688288494671
:10120000404600F0F3F92C2000F09AFC002416E090
:10121000002510E01BF8040080212941084020B17E
:101220000A48008800F090FC03E00948008800F0BC
:101230008BFC681CC5B2082DECDB601CC4B2BC4240
:10124000E6DBBDE8F09F00004001002044010020E3
:101250004601002070B504460D46002624E03046C5
:10126000134909688988084412490988884205DDBC
:1012700000260F480068C088204484B220460C49EC
:101280000968C98808440C490988884201DD00269C
:1012900000242A7821463046FFF790FF6D1C044851
:1012A00000688088304486B228780028D7D170BD85
:1012B00040010020380100203A01002000B597B01D
:1012C0003C2108A8FEF79AFF1C2101A8FEF796FF13
:1012D0000121080200F02AFD012001900420039062
:1012E00080060790002002900490059006900890D8
:1012F000099008200A9010200B9000200C900E906E
:101300000F9010904FF48050119000201290139085
:10131000149001A81590169008A8FFF76FFC012102
:101320000020FFF751FC17B000BD70B504460D4614
:1013300000262C2000F004FC00BF03E0284600F04B
:1013400003FC761CA642F9D370BD000008B501214C
:10135000602000F00BFD03208DF8020018208DF8AE
:1013600003004FF48040ADF8000069465B48FFF78A
:10137000ABFD4FF40040ADF8000069465748FFF759
:10138000A3FD0120ADF8000069465448FFF79CFD1D
:101390000220ADF8000069465048FFF795FD802017
:1013A000ADF8000069464E48FFF78EFD4FF480709F
:1013B000ADF8000069464A48FFF786FD4FF400701B
:1013C000ADF8000069464648FFF77EFD4FF48060A7
:1013D000ADF8000069464248FFF776FD4FF4006023
:1013E000ADF8000069463E48FFF76EFD4FF48050AF
:1013F000ADF8000069463A48FFF766FD4FF400502B
:10140000ADF8000069463648FFF75EFD4FF48040B6
:10141000ADF8000069463248FFF756FD4FF4004032
:10142000ADF8000069462E48FFF74EFD4FF480707E
:10143000ADF8000069462948FFF746FD4FF40070FB
:10144000ADF8000069462548FFF73EFD4FF4806087
:10145000ADF8000069462148FFF736FD03208DF8FE
:10146000020018208DF803001020ADF80000694636
:101470001A48FFF729FD2020ADF8000069461748FB
:10148000FFF722FD8020ADF8000069461348FFF702
:101490001BFD4FF40060ADF8000069460F48FFF7F0
:1014A00013FD10208DF8030003208DF802000220A8
:1014B000ADF8000069460A48FFF706FD10208DF8D8
:1014C000030003208DF802004FF48050ADF80000B7
:1014D00069460248FFF7F8FC08BD0000001401400F
:1014E0000018014010B50446072C00DD10BD31483E
:1014F0000470204604EBD0714910A4EB410139B9C6
:10150000F0202D4908804FF4A0702C49088006E097
:101510004FF4A07028490880F02028490880362020
:1015200000F00EFB2648008849F24131884205D17F
:10153000082141EA441000F007FB0AE02048008837
:1015400048F25251884204D1002141EA441000F08F
:10155000FBFA2A2000F0F4FA002000F0F5FA00204F
:1015600000F0F2FA14490988491EC1F3072000F07F
:10157000EBFA11490978491EC8B200F0E5FA2B20B0
:1015800000F0DEFA002000F0DFFA002000F0DCFAC4
:101590000A490988491EC1F3072000F0D5FA074916
:1015A0000978491EC8B200F0CFFA2C2000F0C8FA22
:1015B00000BF9BE73C010020380100203A010020D9
:1015C0003E01002010B5FFF7C1FEFFF777FE0120B6
:1015D000FFF7C2FD00F0A0FA00F038F802480078EA
:1015E000FFF780FF10BD00003C0100202DE9F04115
:1015F00004460D4616461F462A2000F0A1FA201286
:1016000000F0A2FAE0B200F09FFAA119491EC1F35E
:101610000F2000F099FAA119491EC8B200F094FAFF
:101620002B2000F08DFA281200F08EFAE8B200F0BC
:101630008BFAE919491EC1F30F2000F085FAE91968
:10164000491EC8B200F080FABDE8F08110B500F084
:1016500025FAFE4908800846008849F2413188424F
:101660007ED1CF2000F06CFA002000F06DFA8120CE
:1016700000F06AFA302000F067FAED2000F060FA1E
:10168000642000F061FA032000F05EFA122000F0FE
:101690005BFA812000F058FAE82000F051FA85202A
:1016A00000F052FA102000F04FFA782000F04CFAC7
:1016B000CB2000F045FA392000F046FA2C2000F04B
:1016C00043FA002000F040FA342000F03DFA0620F2
:1016D00000F03AFAF72000F033FA202000F034FA54
:1016E000EA2000F02DFA002000F02EFA002000F091
:1016F0002BFAB12000F024FA002000F025FA1B207C
:1017000000F022FAB62000F01BFA0A2000F01CFAC2
:10171000A22000F019FAC02000F012FA352000F0E3
:1017200013FAC12000F00CFA112000F00DFAC520C8
:1017300000F006FA452000F007FA452000F004FA10
:10174000C72000F0FDF9A22000F0FEF9F22000F021
:10175000F7F9002000F0F8F9262000F0F1F900E098
:1017600096E0012000F0F0F9E02000F0E9F90F2008
:1017700000F0EAF9262000F0E7F9242000F0E4F96F
:101780000B2000F0E1F90E2000F0DEF9092000F056
:10179000DBF9542000F0D8F9A82000F0D5F9462054
:1017A00000F0D2F90C2000F0CFF9172000F0CCF9AE
:1017B000092000F0C9F90F2000F0C6F9072000F059
:1017C000C3F9002000F0C0F9E12000F0B9F90020D1
:1017D00000F0BAF9192000F0B7F91B2000F0B4F9B5
:1017E000042000F0B1F9102000F0AEF9072000F05D
:1017F000ABF92A2000F0A8F9472000F0A5F939201C
:1018000000F0A2F9032000F09FF9062000F09CF9F7
:10181000062000F099F9302000F096F9382000F009
:1018200093F90F2000F090F9362000F089F9C820D4
:1018300000F08AF92A2000F083F9002000F084F9F2
:10184000002000F081F9002000F07EF9EF2000F088
:101850007BF92B2000F074F9002000F075F90020CE
:1018600000F072F9012000F06FF93F2000F06CF9F0
:101870003A2000F065F9552000F066F9112000F0DB
:101880005FF97348FFF790FC292000F059F901E156
:101890006E48008848F252518842F8D1CF2000F0BB
:1018A0004FF9002000F050F9C12000F04DF9302030
:1018B00000F04AF9ED2000F043F9642000F044F90B
:1018C000032000F041F9122000F03EF9812000F0E1
:1018D0003BF9E82000F034F9852000F035F91020BC
:1018E00000F032F9782000F02FF9CB2000F028F931
:1018F000392000F029F92C2000F026F9002000F012
:1019000023F9342000F020F9022000F01DF9F7201F
:1019100000F016F9202000F017F9EA2000F010F985
:10192000002000F011F9002000F00EF9C02000F0B6
:1019300007F9212000F008F9C12000F001F9112079
:1019400000F002F9C52000F0FBF82D2000F0FCF8B3
:10195000332000F0F9F8362000F0F2F8002000F013
:10196000F3F83A2000F0ECF8552000F0EDF8B12043
:1019700000F0E6F8002000F0E7F8172000F0E4F8A7
:10198000B62000F0DDF80A2000F0DEF8A22000F01A
:10199000DBF8F62000F0D4F8012000F0D5F8302074
:1019A00000F0D2F8F22000F0CBF8002000F0CCF8E4
:1019B000262000F0C5F8012000F0C6F8E02000F075
:1019C000BFF8D02000F0C0F8002000F0BDF80220E1
:1019D00000F0BAF8072000F0B7F80B2000F0B4F8D8
:1019E0001A2000F0B1F8312000F0AEF8542000F0D9
:1019F000ABF8402000F0A8F8292000F0A5F812204C
:101A000000F0A2F8122000F09FF8122000F09CF8DD
:101A1000172000F099F8E12000F092F8D02000F0B3
:101A200093F8002000F090F8022000F08DF80720D5
:101A300000F08AF8052000F087F8252000F084F8EF
:101A40002D2000F081F8442004E000003E01002039
:101A5000FCBF020000F078F8452000F075F81C206B
:101A600000F072F8182000F06FF8162000F06CF803
:101A70001C2000F069F81D2000F066F8112000F02D
:101A80005FF80548FFF790FB292000F059F82C205B
:101A900000F056F810BD0000FCBF020010B5002495
:101AA000042000F04DF800BF1748008800BF16481A
:101AB000008800F02BF804464FF6FF7000EA04247B
:101AC00000F024F8044348F25250844201D12046E9
:101AD00010BDD32000F034F800BF0B48008800BFD1
:101AE0000948008800F012F804464FF6FF7000EA3B
:101AF000042400F00BF8044349F24130844201D140
:101B00002046E5E70020E3E7000002600148008886
:101B1000704700000000026010B502210748FFF77F
:101B20005EFA40F6FF20FFF73FFB02210348FFF774
:101B300058FA40F6FF20FFF737FB10BD00180140B0
:101B40004FF0C0410880704701490880704700008D
:101B50000000026072B6704762B670471CB504465A
:101B6000002001900090214800880004204908606E
:101B70000D204860402088600020C8604FF48060DD
:101B80000861084600F006FC1A48406B009002E02D
:101B90001848406B0090009800F045000028F7D0EE
:101BA000012000F0C1FB20B1012000F077FB0120F3
:101BB0001CBD042000F0B8FB20B1042000F06EFB37
:101BC0000320F5E70B4800690D2801D01020EFE74E
:101BD00040F2FF5000F062FB064840690190019816
:101BE000C0F3432020700020E2E70000D400002072
:101BF000F00F00200080014070B5044600F00CF8A2
:101C0000C5882B460348028821460020FFF7B6FA14
:101C100070BD0000380100200148006870470000D6
:101C200040010020024A1080024A118070470000E3
:101C3000440100204601002001490860704700006F
:101C40004001002000BFFEE7704708B54FF4A060D8
:101C500000F05AF825208DF8000001208DF80100D1
:101C60008DF802008DF80300684600F015F808BDF5
:101C700008B54FF4A06000F047F831208DF800005F
:101C800000208DF801008DF8020001208DF803007E
:101C9000684600F001F808BD70B5002100230F224E
:101CA000C47804B3154C246804F4E064C4F5E0641B
:101CB000210AC1F10403CA40447804FA03F184788C
:101CC0001440214309010E4C0678A155047804F014
:101CD0001F050124AC4005786D11AD0005F1E0252C
:101CE000C5F8004109E0047804F01F050124AC4068
:101CF000044D0678761145F8264070BD0CED00E0E5
:101D000000E400E080E100E002490143024A116082
:101D1000704700000000FA050CED00E00149086280
:101D20007047000000000E427047000029B1064ACB
:101D300052690243044B5A6104E0034A52698243E8
:101D4000014B5A61704700000010024029B1064A59
:101D5000D2690243044BDA6104E0034AD269824348
:101D6000014BDA61704700000010024029B1064AB9
:101D700092690243044B9A6104E0034A92698243E8
:101D8000014B9A6170470000001002400149086051
:101D900070470000400442420348406A40F08070AF
:101DA00001494862704700000010024030B5002130
:101DB0000022002400232D4D6D6805F00C0121B197
:101DC000042905D0082923D105E0294D056022E02A
:101DD000274D05601FE0254D6D6805F47012234DF9
:101DE0006D6805F48034022505EB92421CB9214D43
:101DF000554305600BE01D4D6D6805F400351DB1C0
:101E00001C4D5543056002E0194D5543056002E045
:101E1000174D056000BF00BF144D6D6805F0F0015F
:101E20000909154D6B5C0568DD4045600F4D6D6817
:101E300005F4E061090A104D6B5C4568DD40856082
:101E40000A4D6D6805F46051C90A0B4D6B5C45681D
:101E5000DD40C560054D6D6805F44041890B074DB7
:101E60006B5CC568B5FBF3F5056130BD0010024041
:101E700000127A0000093D00140000202400002018
:101E800010B501460022002300204A11012A02D188
:101E9000094C236806E0022A02D1074C236A01E0BC
:101EA000054C636A01F01F02012494401C400CB1F0
:101EB000012000E0002010BD0010024000210B4A6C
:101EC00011700A4A203A82F82010012802D0042812
:101ED00008D103E00121054A117004E00521034AFD
:101EE000117000E000BF00BF7047000020100240EA
:101EF00001490860704700008004424201490860BF
:101F0000704700003C0442420249096A0143014A09
:101F1000116270470010024010B504460420FEF71D
:101F20001BFC4AF2A55188420ED01EA002F06AF8AE
:101F300024A002F067F8204601F026FF4AF2A551DE
:101F40000420FEF717FC2AE001214FF0C050FFF7F4
:101F5000FDFE0120FFF7E2FE0120FFF7C9FF00BFF1
:101F60006120FFF78DFF0028FAD07B20FFF788FF64
:101F700018B11AA002F046F806E07A20FFF780FFB9
:101F800010B11FA002F03EF826A002F03BF800F0CE
:101F90001DF90121032000F0CBF800F00DF9FFF747
:101FA000FBFE10BD0D0A0D0A20525443206E6F74C3
:101FB0002079657420636F6E666967757265642E3B
:101FC0002E2E2E000D0A0D0A2052544320636F6EF0
:101FD000666967757265642E2E2E2E000D0A0D0A35
:101FE00020506F776572204F6E20526573657420A4
:101FF0006F636375727265642E2E2E2E00000000D2
:102000000D0A0D0A2045787465726E616C20526568
:10201000736574206F636375727265642E2E2E2E45
:10202000000000000D0A204E6F206E65656420746C
:102030006F20636F6E666967757265205254432E18
:102040002E2E2E00024909888143014A11807047D3
:102050000428004010B501214FF0C050FFF776FE74
:102060000120FFF75BFEFEF76EFB0120FFF726FF66
:1020700000BF4120FFF704FF0028FAD04FF4807022
:10208000FFF742FF0120FFF739FF00F09FF800F053
:1020900093F80121032000F04BF800F08DF847F68B
:1020A000FF7000F079F800F087F810BD0348008851
:1020B00040F01000014908807047000004280040EB
:1020C000034800884FF6EF710840014908807047C7
:1020D00004280040002103480188001F008841EACD
:1020E000004070471C28004001460020064A128824
:1020F0000A40D0B2044A121F12880A4012B108B135
:10210000012000E0002070470428004010B50120A5
:10211000FFF7EAFF20B10120FFF794FF00F04CF831
:102120000220FFF7E1FF0320FFF78CFF10BD000046
:1021300029B1064A12880243044B1A8004E0034A7C
:1021400012888243014B1A8070470000002800402B
:1021500008B54FF4C060FFF7D7FD03208DF80000ED
:1021600001208DF8010000208DF8020001208DF87B
:1021700003006846FFF790FD08BD000000B5024669
:10218000FFF794FF100C03490880091D0A80FFF730
:1021900097FF00BD1828004000B50246FFF786FFF4
:1021A000C2F3034003490880091D0A80FFF788FF36
:1021B00000BD00000828004000BF0348008800F070
:1021C00020000028F9D07047042800400748008804
:1021D0004FF6F77108400549088000BF03480088A2
:1021E00000F008000028F9D07047000004280040E3
:1021F0007CB50546002400200090019000260DB11A
:10220000022600E000262248406900F0007008B174
:102210000E207CBD1F49098888B26946FEF762FD21
:1022200004460CB12046F4E7019800F4802060B326
:10223000184800880004184908603720486040208A
:1022400088600020C8604FF480600861084600F094
:10225000A1F83720FEF7B6FA04460CB12046D8E7BD
:102260000D48066006200C49486040208860002028
:10227000C8604FF480600861084600F08BF80620C3
:10228000FEF7A0FA04462046C3E72520C1E7000078
:1022900000800140D4000020F00F00200149886335
:1022A000704700000080014001490860704700004D
:1022B000A00030420146034A506820F0FF00084366
:1022C000506070470080014001490860704700007D
:1022D0008C05304200210A4B02685A6242689A62B9
:1022E0001A46D16A21F0F701D0E902231A430369A3
:1022F0001A4343691A431143014AD16270470000EF
:102300000080014000200649086048608860C8607D
:1023100048628862C862034888630020C8637047C7
:1023200000800140FF07C00001460020034A526BB5
:102330000A400AB1012000E00020704700800140FF
:102340000248006800F00300704700000080014070
:1023500010B500F0C5FB10BD00210A4A516847F6D0
:10236000FF629143027D83681A4343681A43C3683E
:102370001A4303681A4303691A431143014A51601F
:10238000704700000080014001480068704700006D
:10239000808001400021094B02689A601A46D1688A
:1023A0006FF30A01D0E901231A43C3681A43036992
:1023B0001A431143014AD160704700000080014078
:1023C0000549096821F00301034A116011460968B3
:1023D000014311607047000000800140014908601E
:1023E000704700008080014010B50248FEF7A0FB56
:1023F00010BD00000020001070B506460C461546C2
:1024000000210848FEF7E2FA074846608560A00808
:102410000549C8600348FEF7B7FB01210148FEF7F4
:10242000D5FA70BD440402401C10002010B50121F3
:102430000220FFF77BFC1348FEF7D4FA0021114875
:10244000FEF7C4FA1048114908601148486010208E
:1024500088600001C8600020086180204861800019
:1024600088618000C861002008624FF40050486213
:10247000002088620348FEF787FB00210148FEF731
:10248000A5FA10BD44040240808001401C100020C9
:10249000C010002008B50020FFF706FF0020FFF75E
:1024A0008FFFFFF72FFF00214FF48060FFF73EFC06
:1024B0004FF4F850ADF8000004208DF80300694691
:1024C0000548FEF701FD0420ADF800006946034809
:1024D000FEF7FAFC08BD00000010014000140140A6
:1024E00070B50446002516480068032801D127204E
:1024F00070BD1348006838B111480068012803D046
:102500000F480068022818D1022C01D32720EFE7DA
:10251000E0B2FFF76DFE05467DB90A48406820F439
:10252000C0500849486008464068A1B240EAC1204E
:10253000044948600846406848602846D8E70000DB
:10254000D000002000800140F0B5014600200022AC
:10255000934B1B7881F85630924B1B88A1F854306E
:10256000914B1B681A0E93090B70C2F383034B70D7
:1025700002F003038B708C4B1B68C3F30742CA70D5
:10258000894B1B88C3F307220A71874B1A784A715B
:102590005B681A0E1301CB80834B5B68C3F3074261
:1025A000CB8843EA1213CB8002F00F030B727E4BF1
:1025B0009B88C3F30722D3094B72C2F380138B723B
:1025C000C2F34013CB72C2F300130B7300234B739F
:1025D000754B1A7993069B0A0B61734B9B681A0E15
:1025E0000B6943EA02230B616F4B9B68C3F30742FD
:1025F0000B6913430B616C4B1B89C3F307220B69F7
:102600005B1C4FF40074A3FB04454FF48066002765
:10261000A4FB063C05FB06C504FB0754C1E91234C4
:1026200073100B65C2F380134B7693065B0E8B76AB
:102630005D4B1A7A8B7E43EAD2138B7602F07F03CE
:10264000CB76594BDB681A0ED3090B77C2F34113D3
:102650004B77C2F382038B7793071B0FCB77524BD9
:10266000DB68C3F30742CB7F43EA9213CB77C2F315
:10267000401381F82030002381F8213002F001035B
:1026800081F82230484B9B89C3F30722D30981F894
:102690002330C2F3801381F82430C2F3401381F851
:1026A0002530C2F3001381F82630C2F3810381F88C
:1026B000273002F0030381F828303B4B1A7B530884
:1026C00081F82930012381F82A30384B1B681A0E13
:1026D00081F82C20354B1B68C3F307421402CC85CC
:1026E000324B1B88C3F30722CB8D1343CB852F4B73
:1026F0001A7814060C635B681A0E0B6B43EA0244EB
:102700000C632A4B5B68C3F307420B6B43EA02245A
:102710000C63264B9B88C3F307220B6B13430B639D
:10272000224B1A7934235A54204B9B681A0E3523B6
:102730005A541E4B9B68C3F3074214068C631B4B11
:102740001B89C3F307228B6B43EA02448C63174B4C
:102750001A7A8B6B43EA02248C63144BDB681A0EE3
:102760008B6B13438B63114BDB68C3F307423C2332
:102770005B5C43EA12143C235C5413071C0DCC87AA
:102780000A4B9B89C3F30722CB8F1343CB87074B9D
:102790001A7B540840235C54012441235C54F0BD4F
:1027A000D0000020D4000020481000205810002045
:1027B00008B500200090684600F034FD08B1FF2005
:1027C00008BD0098C0F34320FAE710B50424FFF7D2
:1027D000EFFF0446042C01D1002010BDFF2C01D1D5
:1027E0000220FAE70120F8E770B500250024FFF782
:1027F0003FFAFFF74FFEFEF73FFBFFF717FEFFF72D
:1028000081FD00F0B5F8044614B900F021F8044643
:102810001CB90E48FFF798FE044634B90B49B1F8CD
:102820005410080400F0E6FC04461CB90120FFF730
:1028300057FE04463CB904252846FFF73BFD01201E
:1028400000F01AFD0446204670BD0000681000200C
:1028500038B5002401200090FFF772FD08B925204B
:1028600038BD3D480068042821D000203B4908605D
:1028700002204860C02088600020C8604FF480605B
:1028800008610846FFF786FDFDF7D0FF04460CB14E
:102890002046E5E73248406932490860304880699F
:1028A00048602F48C06988602D48006AC8602A487F
:1028B000006858B128480068012807D026480068F9
:1028C000062803D024480068022816D10020234996
:1028D000086003204860402088600020C8604FF4F2
:1028E000806008610846FFF755FD69460320FDF743
:1028F000E3FF04460CB12046B2E7174800680428FD
:1029000027D0BDF8000018490860BDF80000000499
:102910001249086009204860C02088600020C86013
:102920004FF4806008610846FFF734FDFDF77EFF35
:1029300004460CB1204693E7094840690B490860FA
:102940000748806948600648C06988600448006A92
:10295000C860002084E70000D0000020F00F0020B5
:102960000080014058100020D400002048100020B2
:102970002DE9F0470026002400270025A046A146A7
:10298000B420524908750020086048608860C8601B
:1029900008610846FFF7E0FC0320FFF711FD012066
:1029A000FFF782FC00BF12E0002049490860486040
:1029B0008860C8604FF4806008610846FFF7EAFC51
:1029C000FDF7E8FE044604B903E0701CC6B2322EDF
:1029D000EADB00BF4FF4D5703D490860082048602D
:1029E000402088600020C8604FF48060086108467D
:1029F000FFF7D0FCFDF7A8FF044624B901203549B4
:102A000008604FF080490020314908603720486055
:102A1000402088600020C8604FF48060086108464C
:102A2000FFF7B8FC3720FDF7CDFE0446002C4BD154
:102A300035E0002026490860372048604020886043
:102A40000020C8604FF4806008610846FFF7A2FCD0
:102A50003720FDF7B7FE044614B12046BDE8F087E5
:102A60001D4849EA00001A490860292048604020B2
:102A700088600020C8604FF4806008610846FFF756
:102A800089FCFDF7FDFE04460CB12046E6E713483D
:102A90004769012080EAD77080F001086D1CB8F109
:102AA000000F03D14FF6FF708542C2D34FF6FF707F
:102AB000854202D31B242046D0E707F08040070060
:102AC00002D00220034908602046C7E7D80F002043
:102AD000F00F0020D0000020000010800080014096
:102AE00010B54948406B00F4807070B347480078D7
:102AF000012814D10020464908600C20486040207D
:102B000088600020C8604FF4806008610846FFF7C5
:102B100041FC0C20FDF756FE3E49087002E0002003
:102B20003C4908703848806B40F4807036498863AF
:102B30000846C06B4CF23A3188433349C8630120E0
:102B4000354908703348007810BDFFE70220FFF7D1
:102B5000EBFB68B10220FFF7A1FB2B48C06B4CF2E6
:102B60003A3188432849C86302202A490870EBE7B4
:102B70000820FFF7D9FB68B10820FFF78FFB224838
:102B8000C06B4CF23A3188431F49C8630420214985
:102B90000870D9E72020FFF7C7FB68B12020FFF7B6
:102BA0007DFB1948C06B4CF23A3188431649C86323
:102BB000062018490870C7E71020FFF7B5FB68B179
:102BC0001020FFF76BFB1048C06B4CF23A31884382
:102BD0000D49C86305200F490870B5E74FF4007030
:102BE000FFF7A2FB70B14FF40070FFF757FB0648E8
:102BF000C06B4CF23A3188430349C863072005494A
:102C00000870A1E700209FE700800140D900002064
:102C1000F00F0020DA000020DB0000202DE9F84F43
:102C20008146174698460A9C4FF0000AD3464D4607
:102C30004FF0FF36B9F1000F02D12620BDE8F88F22
:102C400000208249C86282480068022805D1040237
:102C5000780A40EAC8574FEA682800207D49886012
:102C60004860401E0860012048610020C86008617B
:102C70000846FFF72FFB7548406900F0007008B167
:102C80000E20DBE7002C21DDB4F5006F1EDC601E9A
:102C90002040D8B9204601F067FE00906E480460DD
:102CA00010206D494860402088600020C8604FF4C3
:102CB000806008610846FFF76DFB1020FDF782FD7C
:102CC0008246BAF1000F03D05046B7E72620B5E799
:102CD000009800015F498860084644604FF0FF306B
:102CE0000860012048610220C86000200861084691
:102CF000FFF7F0FA58480760112057494860402014
:102D000088600020C8604FF4806008610846FFF7C3
:102D100041FB1120FDF756FD8246BAF1000F01D0AC
:102D200050468BE74D48007800285AD1FEF712FF35
:102D300018E04FF40040FFF7F7FA78B14FF0000BBE
:102D400006E042488030006845F82B000BF1010B8B
:102D5000BBF1080FF5D32035414E03E00EB9042036
:102D60006CE7761E3948406B40F22A610840002823
:102D7000DFD00820FFF7D8FA20B10820FFF78EFA3D
:102D800004205BE70220FFF7CFFA20B10220FFF713
:102D900085FA022052E72020FFF7C6FA20B1202052
:102DA000FFF77CFA062049E74FF40070FFF7BCFA02
:102DB00028B14FF40070FFF771FA07203EE703E0F7
:102DC000FFF7E2FA28602D1D4FF40010FFF7ACFA70
:102DD0000028F5D1FEF7C0FE40F2FF50FFF75EFA83
:102DE00031E01E48007801282DD1002221464846B6
:102DF000FFF702FB00201B4908701B4908701B49A4
:102E000008701248C06B40F22A3108430F49C8636A
:102E10000120FFF759FA00E0761E1548006800F41B
:102E2000005038B91148007820B90E48007808B928
:102E3000002EF1D10EB9042000E70A48007810B145
:102E4000084890F800A05046F8E6000000800140D5
:102E5000D000002004100020F00F0020D800002037
:102E6000FFFF7F00DA000020D9000020DB000020F7
:102E7000000402402DE9FE4F83460C469146002097
:102E80000290002625462C46700240EAD5566D0277
:102E90000BF00300F0B14FF0000A18E04FF400709F
:102EA00000904FEA4A20471946EBE0733A4616482D
:102EB000FFF7B4FE02904FF4007213495846FDF735
:102EC00084F90BF5007B0AF1010000F0FF0ACA4506
:102ED000E4DB16E0B9F1010F09D14FF400702A4686
:102EE000334600905846FFF799FE029009E04FF4F0
:102EF00000702A463346CDE90009584600F006F82E
:102F000002900298BDE8FE8FC01000202DE9FF5FFF
:102F100017469846DDE90E464FF00009CA464FF0C5
:102F2000FF35A949009808600020A849C862A84850
:102F30000068022805D10402780A40EAC8574FEA1F
:102F400068280020A34988604860401E086001206E
:102F500048610020C86008610846FFF7BBF99B483C
:102F6000406900F0007018B10E2004B0BDE8F09F79
:102F7000002C21DDB4F5006F1EDC601E2040D8B9A6
:102F8000204601F0F1FC83469348046010209249EA
:102F90004860402088600020C8604FF4806008616D
:102FA0000846FFF7F7F91020FDF70CFC8146B9F150
:102FB000000F03D04846D8E72620D6E7012E70D967
:102FC00006FB04F0B0F1007F01D32620CDE74FEAE5
:102FD0000B108049886006FB04F048604FF0FF301A
:102FE0000860012048610220C8600020086108468E
:102FF000FFF770F978480760122077494860402051
:1030000088600020C8604FF4806008610846FFF7C0
:10301000C1F91220FDF7D6FB8146B9F1000F01D0AE
:103020004846A2E76D48007800287DD1FEF792FD62
:103030001EE04FF40040FFF777F9A8B14FF0000A07
:1030400008E06248803000685F49096841F82A005A
:103050000AF1010ABAF1080FF3D35B480068203087
:10306000594908605E4D03E00DB904207DE76D1EEF
:103070005648406B40F22A3108400028D9D0082039
:10308000FFF752F920B10820FFF708F904206CE798
:103090000220FFF749F928B10220FFF7FFF80220CC
:1030A00063E78EE02020FFF73FF920B12020FFF7F3
:1030B000F5F8062059E74FF40070FFF735F928B10D
:1030C0004FF40070FFF7EAF807204EE709E0FFF73A
:1030D0005BF93D49096808603B480068001D3A49B2
:1030E00008604FF40010FFF71FF90028EFD14FF4EC
:1030F0008070FFF719F920B33548006838B13448BB
:103100000068012803D032480068022819D1002045
:10311000314908600C204860402088600020C86069
:103120004FF48060086100E012E00846FFF732F9D2
:103130000C20FDF747FB8146B9F1000F01D048464E
:1031400013E7FEF709FD40F2FF50FFF7A7F838E05C
:1031500022480078012834D106FB04F100220098AF
:10316000FFF74AF900201F49087001201E49087026
:1031700000201E4908701548C06B40F22A310843F0
:103180001249C8630846C06A40F00800C86200E0FF
:103190006D1E1748006800F4005008B9002DF7D1E3
:1031A0000DB90420E1E600BF1048007818B90D48B9
:1031B00000780028F8D00B48007810B1094890F842
:1031C00000904846D1E60000DC000020008001406D
:1031D000D000002004100020F00F0020D8000020B4
:1031E000FFFF7F00DA000020D9000020DB00002074
:1031F0000004024010B5044609480460072008494D
:103200004860402088600020C8604FF480600861FA
:103210000846FFF7BFF80720FDF7D4FA10BD0000FD
:10322000F00F002070B50446002514B92625284665
:1032300070BD0E48008800040D4908600D204860EC
:10324000402088600020C8604FF480600861084614
:10325000FFF7A0F80D20FDF7B5FA05460DB1284699
:10326000E6E70448406920602846E1E7D4000020F2
:10327000F00F00200080014001460020012900D00D
:1032800011B9024B197000E026207047D8000020C9
:1032900010B5002400BFFFF7A7F830B90748007841
:1032A00018B9074800780028F5D00548007810B113
:1032B0000348007810BD2046FCE70000DB0000203A
:1032C000DA00002010B5002400BFFFF78DF830B9F8
:1032D0000948007818B9094800780028F5D007484F
:1032E000007810B10548007810BD40F2FF50FEF79D
:1032F000D5FF2046F8E70000DB000020DA000020C0
:103300002DE9FF5F86B017469846149D00260020E1
:103310000590049000248146039082460290019516
:10332000DDF818B0DDF818B0BBF1000F03D126208E
:103330000AB0BDE8F09F0020C449C862C449886053
:103340004860401E0860012048610020C860086194
:103350000846FEF7BFFFBD48406900F0007008B1A5
:103360000E20E5E7BB480068022805D10502780A6F
:1033700040EAC8574FEA6828002D1FDDB5F5006FF9
:103380001CDC681E2840C8B9284601F0EDFA0590FB
:10339000B14805601020B049486040208860002096
:1033A000C8604FF4806008610846FEF7F3FF102004
:1033B000FDF708FA06461EB13046B9E72620B7E702
:1033C000A64800880004A44908600D2048604020F9
:1033D00088600020C8604FF4806008610846FEF7EE
:1033E000D9FF0D20FDF7EEF906460EB130469FE7F6
:1033F0009648406903904FF0FF341BE0641E9748E5
:1034000000880004944908600D20486040208860CE
:103410000020C8604FF4806008610846FEF7BAFFDC
:103420000D20FDF7CFF906460EB1304680E78748FC
:1034300040690390039800F4807008B9002CDDD136
:103440000CB9292074E78448076018208249486035
:10345000402088600020C8604FF480600861084602
:10346000FEF798FF1820FDF7ADF906460EB130467D
:103470005EE700207A490870059800017449886069
:10348000084645604FF0FF30086001204861002089
:10349000C86008610846FEF71DFF4FF0FF34714811
:1034A000007800287BD1FEF755FB43E04FF48040C5
:1034B000FEF73AFFC8B30198A0EB0900202821D2FB
:1034C0000198A0EB090000F0030020B90198A0EBDF
:1034D0000900800804E00198A0EB09008008401C66
:1034E00002904FF0000A09E0DBF80000FEF776FFDB
:1034F0000AF1010A0BF1040B09F104090298824553
:10350000F2D30FE04FF0000A05E05BF82A00FEF767
:1035100065FF0AF1010ABAF1080FF6D30BF1200B8F
:1035200009F120096FF0404404E0FFE70CB90420E2
:10353000FEE6641E4548406B40F21A6108400028D0
:10354000B4D00820FEF7F0FE20B10820FEF7A6FE5A
:103550000420EDE60220FEF7E7FE20B10220FEF790
:103560009DFE0220E4E61020FEF7DEFE20B11020D2
:10357000FEF794FE0520DBE64FF40070FEF7D4FE64
:1035800030B14FF40070FEF789FE0720D0E606E068
:10359000FEF7E2FA40F2FF502C4988633EE03148E2
:1035A000007801283AD1102229460698FEF724FF18
:1035B00000202D4908702A4908702C4908702348BA
:1035C000C06B40F21A3108432049C8630846C06AFC
:1035D00040F00800C86200E0641E2548006800F45E
:1035E000005008B9002CF7D11CB9FFF7FDF80420F2
:1035F0009EE64FF0FF3400E0641E1C48007820B9BE
:103600001948007808B9002CF6D10CB904208FE6CF
:103610001548007810B11448007889E640F2FF5050
:10362000FEF73CFE04A8FEF799FA064603E004A85C
:10363000FEF794FA06463EB99DF810000728F6D02A
:103640009DF810000628F2D0304671E60080014057
:1036500004100020D0000020F00F0020D400002033
:10366000D9000020D8000020DA000020DB00002074
:10367000000402402DE9FE4F81460C469246002090
:103680000290002625462C46700240EAD5566D026F
:1036900009F00300F0B14FF0000B18E04FF4007296
:1036A00049461948FCF791FD4FF4007000904FEA2D
:1036B0004B20471946EBE0733A461348FFF720FECC
:1036C000029009F500790BF1010000F0FF0BD345E2
:1036D000E4DB16E0BAF1010F09D14FF400702A467D
:1036E000334600904846FFF70BFE029009E04FF486
:1036F00000702A463346CDE9000A484600F006F835
:1037000002900298BDE8FE8FC01000202DE9FF5FF7
:1037100084B0DDE9124700260020039002900025C6
:1037200080468146019007FB04FBDDF810A0DDF820
:1037300010A0BAF1000F03D1262008B0BDE8F09F19
:103740000020D849C862D84988604860401E086097
:10375000012048610020C86008610846FEF7BAFDF4
:10376000D048406900F0007008B10E20E5E7CF486E
:103770000068022808D10402DDE90601400A40EA97
:10378000C1504912CDE90601002C1FDDB4F5006FD0
:103790001CDC601E2040C8B9204601F0E5F803900B
:1037A000C34804601020C24948604020886000205F
:1037B000C8604FF4806008610846FEF7EBFD1020FA
:1037C000FDF700F806461EB13046B6E72620B4E7FE
:1037D000012F6FD907FB04F0B0F1007F01D3262041
:1037E000ABE7B248006838B1B0480068012803D0A0
:1037F000AE48006802282DD1AE4800880004AC49CC
:10380000086037204860402088600020C8604FF47E
:10381000806008610846FEF7BDFD3720FCF7D2FF47
:1038200006460EB1304688E7A14807601720A04938
:103830004860402088600020C8604FF480600861C4
:103840000846FEF7A7FD1720FCF7BCFF06460EB1A1
:10385000304672E796490698086019204860402073
:1038600088600020C8604FF4806008610846FEF759
:1038700091FD1920FCF7A6FF06460EB130465CE725
:10388000039800018849886007FB04F048604FF006
:10389000FF300860012048610020C86008610846C8
:1038A000FEF718FD84480078002871D1451EFEF708
:1038B00051F940E0DEE07B48406B00F48040A8B363
:1038C000ABEB080020281ED2ABEB080000F0030091
:1038D00018B9ABEB0800800803E0ABEB08008008E8
:1038E000401C01904FF0000909E0DAF80000FEF7F3
:1038F00075FD09F101090AF1040A08F104080198AB
:103900008145F2D30FE04FF0000905E05AF8290095
:10391000FEF764FD09F10109B9F1080FF6D30AF1C8
:10392000200A08F120086FF0404504E0FFE70DB9D8
:10393000042002E76D1E5B48406B40F21A310840DC
:103940000028B8D00820FEF7EFFC20B10820FEF7D1
:10395000A5FC0420F1E60220FEF7E6FC20B10220DF
:10396000FEF79CFC0220E8E61020FEF7DDFC20B10B
:103970001020FEF793FC0520DFE64FF40070FEF701
:10398000D3FC30B14FF40070FEF788FC0720D4E67A
:103990002CE04FF48070FEF7C7FC00B3434800688A
:1039A00038B142480068012803D040480068022826
:1039B00015D100203E4908600C20486040208860F6
:1039C0000020C8604FF4806008610846FEF7E2FC02
:1039D0000C20FCF7F7FE06460EB13046ADE6FEF7CA
:1039E000BBF840F2FF50FEF759FC43E03248007844
:1039F00001283FD107FB04F110220498FEF7FCFCDC
:103A000000202E49087001202D49087000202D4902
:103A100008702448C06B40F21A3108432149C8633A
:103A20000846C06A40F00800C8624FF0FF3500E069
:103A30006D1E2548006800F4005008B9002DF7D12C
:103A40001DB9FEF7D1FE042077E64FF0FF3500E008
:103A50006D1E1C48007820B91848007808B9002D60
:103A6000F6D10DB9042068E61448007810B1134867
:103A7000007862E640F2FF50FEF710FC02A8FEF765
:103A80006DF8064603E002A8FEF768F806463EB960
:103A90009DF808000728F6D09DF808000628F2D007
:103AA00030464AE60080014004100020D00000208B
:103AB000F00F0020D4000020D8000020DA00002001
:103AC000D9000020DB00002000040240704710B540
:103AD00000F002F810BD00000CB50020019000902D
:103AE0003348006840F480303149086000BF3048F6
:103AF000006800F4003000900198401C019000988C
:103B000018B90198B0F5A06FF1D12948006800F408
:103B1000003010B10120009001E0002000900098DA
:103B2000012843D12348006840F010002149086073
:103B30000846006820F0030008600846006840F06E
:103B4000020008601A484068194948600846406801
:103B500048600846406840F4806048600846406815
:103B600020F47C1048600846406840F4E810486043
:103B70000846006840F08070086000BF0C4800688C
:103B800000F000700028F9D00948406820F00300D8
:103B9000074948600846406840F00200486000BF9E
:103BA0000348406800F00C000828F9D10CBD000063
:103BB0000010024000200240042808D14FF0E0210C
:103BC000096941F004014FF0E022116107E04FF074
:103BD000E021096921F004014FF0E02211617047F2
:103BE0007047000010B51348006840F0010011490B
:103BF000086008464068104908400E494860084679
:103C000000680E4908400B4908600846006820F427
:103C1000802008600846406820F4FE0048604FF4A9
:103C20001F008860FFF753FF4FF0006004490860F1
:103C300010BD0000001002400000FFF8FFFFF6FE7C
:103C400008ED00E010B501210E4800F030F8B8B1E1
:103C50000D480078401C0C490870084600780B4954
:103C60000978884208DB0020074908700749087076
:103C70000021044800F00FF80121024800F008F884
:103C800010BD000000100040480000204900002046
:103C9000CA430282704721B1028842F001020280C9
:103CA00004E002884FF6FE731A400280704730B578
:103CB0000246002000230024158A05EA01039589A5
:103CC00005EA010413B10CB1012000E0002030BD71
:103CD0001AB183890B43838102E083898B438381FB
:103CE00070470000002202881D4B98420ED01D4BE9
:103CF00098420BD0B0F1804F08D01B4B984205D0B2
:103D00001A4B984202D01A4B984204D14FF68F7347
:103D10001A404B881A43174B984207D0164B9842CB
:103D200004D04FF6FF431A40CB881A4302808B8899
:103D300083850B8803850A4B98420BD0094B984228
:103D400008D00E4B984205D00D4B984202D00D4B37
:103D5000984201D10B7A03860123838270470000C9
:103D6000002C0140003401400004004000080040E5
:103D7000000C0040001000400014004000400140D2
:103D8000004401400048014070B50446FEF762F966
:103D9000FEF712FA2046FDF791F9204601F026FEC3
:103DA000A0F5E1452846FEF7E9F9FEF705FA70BDF2
:103DB0007FB505460C4601211020FDF7C7FF002006
:103DC000ADF80A00ADF80600ADF80850ADF80440B3
:103DD00001A90F48FFF786FF00210D48FFF75BFFA1
:103DE00036208DF8000001208DF8030002208DF8A8
:103DF00001008DF802006846FDF74EFF01210448DE
:103E0000FFF746FF002201210148FFF761FF7FBD58
:103E10000010004021B1828942F40052828104E006
:103E200082894DF6FF731A408281704700B585B0D4
:103E300001210420FDF79AFF01218803FDF796FF79
:103E40004FF40070ADF8100018208DF81300032017
:103E50008DF8120004A91748FDF736F84FF480607A
:103E6000ADF8100004208DF8130004A91148FDF7E7
:103E70002BF84FF4E13000900020ADF80400ADF8CD
:103E80000600ADF80800ADF80C000C20ADF80A00F3
:103E90006946094800F044F8FDF7D7FE012240F2D8
:103EA0002551054800F017F801210348FFF7B2FF3C
:103EB00005B000BD00080140003801400246002066
:103EC000B1F5007F00D100BF13880B400BB101207A
:103ED00000E000207047F0B50346002400260025CE
:103EE000002040F66A17B94200D100BF1846C1F35E
:103EF000421401F01F06012707FA06F5012C01D133
:103F00000C3004E0022C01D1103000E014301AB162
:103F100007682F43076002E00768AF430760F0BD02
:103F20002DE9F04786B005460E460024A24600BFA4
:103F3000A1460027B08900B100BF2F462C8A4CF65D
:103F4000FF700440F08804432C82AC894EF6F310D5
:103F50000440B08831890843718908430443AC8127
:103F6000AC8A4FF6FF400440B0890443AC8201A8FC
:103F7000FDF71CFF1F48874202D1DDF810A001E0C9
:103F8000DDF80CA0A88900F4004040B10AEBCA009B
:103F900000EB0A1031684900B0FBF1F807E00AEBCA
:103FA000CA0000EB0A1031688900B0FBF1F8642008
:103FB000B8FBF0F004012009642101FB1089A889F5
:103FC00000F4004040B1322000EBC900B0FBF1F03A
:103FD00000F00700044308E0322000EB09106421E0
:103FE000B0FBF1F000F00F0004432C8106B0BDE8F7
:103FF000F087000000380140C1F30802828070475A
:1040000000BFFEE70FB4054B10B503A9044A0298A0
:1040100000F0CAF810BC5DF814FB0000CD56000893
:104020004801002002E008C8121F08C1002AFAD186
:1040300070477047002001E001C1121F002AFBD128
:10404000704700002DE9FF5FDDE90220010DDDF87A
:1040500038B0024318D044F61050A1F2FF3141436A
:104060000D140F98012820D0A5EB0B00401C5FEA2F
:10407000000A4FF00004474EDFF81C91A04650465E
:1040800016D5CAF1000728E00F98012443A20128A1
:1040900008D0002100980F9BC0E90021C0E902432D
:1040A000BDE8FF9F6FEA0B01F4E7CBF10000DEE70C
:1040B000074612E0F80707D02246334640464946F5
:1040C000FCF7A7F880468946224633461046194633
:1040D000FCF79FF804460E467F10002FEAD1DDE979
:1040E0000201BAF1000F42464B4602DAFCF791F8A2
:1040F00001E0FCF739FA04460E460022284BFCF793
:10410000BBFA03D84FF0FF30014607E00022254BF1
:1041100020463146FCF781F9FCF795FA102409E0B6
:10412000002C0ADB0A220023FCF71EF8019B303228
:104130001A55641E50EA0102F2D1641C019AC4F1BE
:10414000110314440F9A012A03D0012208430DD110
:104150000AE0084304D000204FF0110B0F9080E7D5
:10416000A3EB0B056D1E0DE05B4504DD4FF0000277
:1041700005F1010504E003DA4FF00002A5F10105A5
:10418000002AECD000980F99C0E90231C0E900453F
:1041900086E70000000024400000F03F30000000EF
:1041A0000000F0430000E03F2DE9FF4F95B09B4633
:1041B0008946064600250FE2252877D100242746A8
:1041C000F84A0121059400E0044316F8013F203B22
:1041D00001FA03F01042F7D130782A2811D06FF09D
:1041E0002F033078A0F13002092A16D8059A44F03E
:1041F000020402EB820203EB42021044761C05909B
:10420000EFE759F8042B0592002A03DA504244F4F0
:104210000054059044F00204761C30782E2816D104
:1042200016F8010F44F004042A280DD06FF02F0275
:104230003078A0F13003092B09D807EB870302EB94
:104240004303C718761CF3E759F8047B761C3078D3
:104250006C280FD006DC4C2817D068280DD06A28AF
:1042600014D104E0742810D07A280FD10DE044F462
:1042700000140AE044F4801401E044F4401472781D
:10428000824202D104F58014761C761C30786628B0
:104290000BD013DC582877D009DC002875D04528CE
:1042A000F6D04628F4D047281AD19DE118E06328BB
:1042B00035D0642879D0652812D195E1702873D063
:1042C00008DC6728F1D069286FD06E280DD06F28E0
:1042D00006D1B5E073282CD0752875D0782874D015
:1042E0005A46179990476D1C75E1C4F30250022895
:1042F00009D003280DD0D9F8001004280DD00D6086
:1043000009F1040967E1D9F80010EA17C1E9005280
:10431000F6E7D9F800100D80F2E70D70F0E719F814
:10432000041B8DF8001000208DF80100EA460120E2
:1043300003E059F804AB4FF0FF3061074FF0000184
:1043400002D40DE008F101018846B9420FDA804538
:10435000F8DB1AF808100029F4D108E008F101018F
:1043600088468142FADB1AF808100029F6D1059830
:104370005B46A0EB080721463846179A00F094FAEE
:10438000284400EB080507E04DE029E10DE01AF8AC
:10439000010B5A4617999047B8F10108F7D25B46CE
:1043A00021463846179A13E142E00A220092C4F3EC
:1043B00002524FF0000A022A08D059F804CB032A0F
:1043C0004FEAEC710AD00DE029E02AE009F107017B
:1043D00021F00702F2E802C1914609E00FFA8CFCD5
:1043E0004FEAEC71042A03D14FFA8CFC4FEAEC71CE
:1043F000002907DA0A460021DCF1000C61EB02011A
:104400002D2202E0220504D52B228DF80420012262
:1044100003E0E20701D02022F7E7904659E00A21A5
:1044200002E010220DE010214FF0000A00910BE095
:1044300010224FF0000A44F004040827009203E021
:1044400008224FF0000A0092C4F30252022A05D05B
:1044500059F804CB0021032A08D009E009F107012B
:1044600021F00702F2E802C1914605E01FFA8CFC38
:10447000042A01D10CF0FF0C4FF00008220728D5C8
:10448000702806D0009B83F0100353EA0A0305D07E
:104490000EE040228DF80420012208E05CEA0102CF
:1044A00006D030228DF804208DF8050002229046B7
:1044B000009B83F0080353EA0A030AD15CEA010275
:1044C00001D1620705D530228DF804204FF0010894
:1044D0007F1E582804D034A003900EA802900DE04F
:1044E00036A0F9E753466046009AFBF73DFE844646
:1044F0000398825C0298401E029002705CEA010000
:10450000F0D1029806A9081A00F1200A600702D526
:1045100024F4803400E00127574502DDA7EB0A00B0
:1045200000E0002000EB0A01009005984144401A89
:104530000590E00306D45B462146179A059800F0E3
:10454000B3F90544002706E001A85A46C05D179953
:1045500090476D1C7F1C4745F6DBE0030CD55B469E
:104560002146179A059800F09FF9054404E0302091
:104570005A46179990476D1C0099481E00900029D3
:10458000F5DC08E0029802995A460078491C02912D
:10459000179990476D1CBAF10001AAF1010AF1DCEC
:1045A00065E10000092801003031323334353637F7
:1045B000383961626364656600000000303132336F
:1045C000343536373839414243444546000000000F
:1045D00000F058F90544761C307800287FF4ECADE3
:1045E00019B02846BDE8F08F620700D4062709F10C
:1045F000070222F0070CFCE80223E14603F0004822
:104600005FEA080C02D00FF2702C0DE05FEA045C48
:1046100002D50FF2682C07E05FEAC47C02D00FF2EB
:10462000602C01E0AFF2700C4FF0FF3823F0004334
:10463000CDF850C065280CD006DC452809D04628A6
:104640001DD047283DD13DE0662818D067287ED18F
:1046500038E00021112F01DB112000E0781CCDE9AA
:10466000000106A90EA8FFF7EDFCDDE90F010E9A87
:1046700003910021009207F1010A04914DE04FF0EF
:1046800000400097CDE9011006A90EA8FFF7DAFC5B
:10469000DDE90F0203920E9B11990022DDF80CA0B8
:1046A0000093049211B9791C00EB010AB7EB0A00E0
:1046B00004D4C0F1FF3007F1010A0490AAEB07000F
:1046C000019044E0012F00DA01270021112F01DDC4
:1046D000112000E03846CDE9000106A90EA8FFF739
:1046E000B1FCDDE90F010E9A0391002104910092C3
:1046F000BA4621070CD40399514500DA8A46BAF12B
:10470000010F05DD009AAAF10101515C302908D0A2
:10471000B84202DA10F1040F06DA0121CDE90110E6
:1047200015E0AAF10101E9E7002805DC049901443C
:104730000491AAEB000102E0411C514500DD8A46CC
:104740000499401A401C01904FF00040029020074D
:1047500004D40198504501DBCDF8048000208DF889
:104760004F0002980DF14F07B0F1004F25D02B20DC
:104770000E9002984FF0020800280CDA4042029096
:104780002D200E9007E00A210298FBF7B4FD30318E
:10479000029007F8011DB8F10001A8F10108F2DC50
:1047A00002980028EFD1791E0E980870307800F03A
:1047B000200040F0450007F8020D12A8C01B00F1D0
:1047C00007081498007800B1012000EB0A01019855
:1047D00001EBE07105984144401A401E0590E0034A
:1047E00006D45B462146179A059800F05DF805440B
:1047F0001498007818B15A46179990476D1CE00339
:1048000024D55B462146179A059800F04DF80544DB
:104810001CE00498002807DBDDE90301884203DD82
:104820000098405C179901E0179930205A4690474C
:10483000049805F10105401C04900198401E019068
:1048400004D12E205A46179990476D1CBAF10001E9
:10485000AAF1010ADDDC05E017F8010B5A461799A9
:1048600090476D1CB8F10001A8F10108F4DC5B462B
:104870002146179A0598ABE62D0000002B0000009A
:10488000200000002DE9F041044600251E46174691
:10489000880404D405E039462020B0476D1C641E0E
:1048A000F9D52846BDE8F0812DE9F0410446002500
:1048B0001E469046C80301D5302700E02027880413
:1048C00004D505E041463846B0476D1C641EF9D555
:1048D0002846BDE8F081000070B504460D46002072
:1048E0002071401EE0622946204601F0BDF808B163
:1048F000032070BD94F82E1294F82F0241EA002094
:104900004AF65521884201D00220F2E794F8690066
:10491000010694F8680041EA004194F8670041EA12
:10492000002094F86610084320F07F400D4988422B
:1049300001D10020DDE794F88500010694F8840099
:1049400041EA004194F8830041EA002094F8821083
:10495000084320F07F400349884201D10020C8E786
:104960000120C6E7464154000146002002E04910FC
:10497000421CD0B20129FAD17047000010B56FF087
:104980000400FFF719F90A4800680A49B0FBF1F082
:10499000094908700846007800EB4001C1EBC010DF
:1049A0004FF6FF7101EAC0000449088010BD000005
:1049B0000000002000127A00EA000020EC00002035
:1049C00070B5044601253CB9FDF70EFF10B925F07E
:1049D000010500E0012501E0012500BF00BF2846D8
:1049E00070BD00002DE9F04705460E4614464FF015
:1049F0000409FDB9CEB1012E0BD0022E02D0032E38
:104A000014D103E04FF4007020800FE001202060FB
:104A10000CE00C48D0F850C062460023D0E9127177
:104A20003846FBF7A1FB206000E000BF00BF4FF05D
:104A3000000902E04FF0040900BF00BF4846BDE88E
:104A4000F0870000681000202DE9F04704460D466D
:104A500016461F464FF004094FF00008CCB9FAB2D1
:104A600031462846FEF706FA8046B8F1000F07D116
:104A7000FEF70EFC804600BFFDF7A7FE0028FBD125
:104A8000B8F1000F02D04FF0040901E04FF0000927
:104A900002E04FF0040900BF00BF4846BDE8F087C0
:104AA0000146012011B920F0010001E0012000BF02
:104AB00000BF70472DE9F04705460E4617461C46D5
:104AC0004FF004094FF0000814B90420BDE8F08746
:104AD000CDB9E2B239463046FEF7CCFD8046B8F19A
:104AE000000F07D1FEF7EEFB804600BFFDF76DFE1D
:104AF0000028FBD1B8F1000F02D04FF0040901E00B
:104B00004FF0000902E04FF0040900BF00BF484623
:104B1000DCE72DE9F74F82B08A46002202A904980B
:104B200000F0E8FB019004980468019800286DD11A
:104B3000D4E90410801E814203D82069CAF800001D
:104B400064E094F800B00026BBF1010F1CD10227ED
:104B500000BF3946204600F0CBFD804608F1010039
:104B600010B9012001900EE0B8F1010F02D102202E
:104B7000019008E0B8F1000F00D1761C781C0746C0
:104B800061698842E5D33AE06769206A00904FF096
:104B90000009002500BFB9F1000F0ED10098421C9A
:104BA00001462046009200F05FFF0190019800B19D
:104BB00024E004F13005B4F80A90BBF1020F09D1EA
:104BC0002878697840EA012000B9761CAD1CA9F16B
:104BD000020910E0E8780006A97840EA0140697807
:104BE00040EA01202978084320F0704000B9761C83
:104BF0002D1DA9F10409781E0700CCD100BF266144
:104C0000607940F001006071CAF80060019805B059
:104C1000BDE8F08F2DE9F74F90B09146119801282B
:104C200003DD132013B0BDE8F08F10A800F026FEBE
:104C30000F900F98002801DA0B20F3E7FA490F983C
:104C400051F820500DB90C20ECE7002028700F9887
:104C5000C0B20C9000200B900C98FFF7B1FE0190B1
:104C6000019800F0010008B10320DBE7019800F093
:104C7000040008B10A20D5E705F10A0202210C98C8
:104C8000FFF7B0FE38B96889B0F5806F03DC68893A
:104C9000B0F5007F01DA0120C4E700BF04AA0121BA
:104CA0000C98FFF79FFE10B90498802801D20120CC
:104CB000B8E7119808B1002000E03F208246049830
:104CC000A0EB0A000490A9F1010000EA090008B174
:104CD0004FF00009B9F1000F1AD16889C11700EB34
:104CE000D15149124FF4FA6292FBF1F1049AB2FBEE
:104CF000F1F10A914FF0000B01E00BF1010BCB48F1
:104D000030F81B100A988142F7D8C94830F81B9038
:104D1000B9F5007F02D36889B9FBF0F9B9F1000F4A
:104D200001D14FF00109B9F1800F01D94FF080098D
:104D30000498B0FBF9F8012640F6F670804500D3E0
:104D400002264FF6F670804500D30326032E0CD1C1
:104D5000082000EB880069890844401EB0FBF1F789
:104D6000202003900020029019E0012E05D108EBCD
:104D70004800401C4008C01C02E04FEA4800001DEB
:104D8000074668893844401E6989B0FBF1F7012065
:104D9000039068894FF48041B1FBF0F002900398D2
:104DA00050440790079838440690029906980844A2
:104DB000059005984844A0EB0A000499884201D95F
:104DC0000E202FE709AA03210C98FFF70BFE28B944
:104DD000099818B10998B0F5004F01D90120099040
:104DE000099905980844401E491E8843099009996D
:104DF0000598081A0990032E08D1099903980844C8
:104E00000390099907980844079001E0099807441E
:104E1000DDE90301081AC11B0298081AB0FBF9F872
:104E2000022E03D140F6F670804505D3032E05D13E
:104E30004FF6F670804501D20E20F3E6032E02D124
:104E40000C200D9010E0012E06D10498B0F5803FA3
:104E500002D201200D9007E00498B0F5803F01D206
:104E6000042000E006200D9000BF119810B1F02042
:104E70000E9043E06A89002105F1300000F0ABFD9F
:104E800005F5F77401206070A0700020E0700D98A7
:104E90002071FE206071049850443F21B0FBF1F076
:104EA000FF21B0FBF1F009903F21099841EA900001
:104EB000A0710998E0713F20207200216172A172F7
:104EC000E172049820730498010A61730498010C3C
:104ED000A1730498010EE173552185F82E12AA21C1
:104EE00085F82F120123002205F130010C98FFF7FD
:104EF000E1FD08B1012095E6F8200E9005F130049F
:104F00006A890021204600F066FD0B2249A1204657
:104F100000F054FDB5F80AB084F80BB04FEA1B213D
:104F2000217384F80D900398A0730398010AE1732C
:104F300001202074032E01D1002001E04FF4007005
:104F4000834684F811B04FEA1B21A1740498B0F590
:104F5000803F05D20498E0740498010A217510E09E
:104F6000049884F820000498C0F3072121200155FB
:104F70000498C0F30741222001550498010E232014
:104F800001550E9860753F20207600216176FF2044
:104F9000A076E17684F81CA04FEA1A2161774FEAE7
:104FA0001A41A1774FEA1A61E17700F041FC0990BC
:104FB000032E4BD1099884F843000998C0F30721C8
:104FC000442001550998C0F307414520015509982F
:104FD000010E4620015584F82470C7F307212520CF
:104FE0000155C7F3074126200155390E27200155E9
:104FF000022084F82C0000212D2001552E2001557F
:105000002F200155012084F8300031200155062061
:1050100084F8320033200155802084F84000292094
:1050200084F8420013220BE0E0000020FA5C000844
:10503000105D0008EBFE904D53444F53352E300069
:105040008AA104F1470000F0B9FC1FE0099884F838
:1050500027000998C0F30721282001550998C0F3BB
:105060000741292001550998010E2A200155A775ED
:10507000390AE175802084F82400292084F826006C
:1050800013227FA104F12B0000F098FC552084F836
:10509000FE01AA2140F2FF1001550123524621468C
:1050A0000C98FFF707FD08B10120BBE5032E06D1E0
:1050B00001230AF1060221460C98FFF7FBFC079832
:1050C00008904FF0000B5FE06A890021204600F055
:1050D00082FC0E980990032E14D0012E01D16D4848
:1050E00001E06FF0FF0009990843099009982070CA
:1050F0000998000A60700998000CA0700998000EC9
:10510000E07019E0099860F0FF000990099820709C
:105110000998000A60700998000CA0700998000EA8
:10512000E070FF202071FF216171A171E171207297
:105130006172A1720F21E1720898411C024601239D
:10514000089121460C98FFF7B5FC08B1012069E5EC
:105150006A890021204600F03EFC012009900EE003
:105160000898411C02460123089121460C98FFF73C
:10517000A1FC08B1012055E50998401C0990099847
:10518000B842EDD30BF1010BBBF1000F9CD0032E05
:1051900001D1484600E00298834600BF0898411CB0
:1051A00002460123089121460C98FFF783FC08B1C1
:1051B000012037E5ABF101005FEA000BEED1032ED1
:1051C00049D15220207060706120A0704120E070B1
:1051D000722084F8E401722140F2E510015541216A
:1051E000401C01556121401C0155A8F1010084F8C3
:1051F000E801C0F3072140F2E9100155A8F10100D0
:10520000C0F307414FF4F5700155A8F10100010EFC
:1052100040F2EB100155022084F8EC01002140F22D
:10522000ED100155401C0155401C0155552084F8D6
:10523000FE01AA2140F2FF10015501230AF10102EB
:1052400021460C98FFF736FC01230AF1070221469C
:105250000C98FFF72FFC002211460C98FFF7C2FBB9
:1052600008B10120DEE40020DCE400004E4F204EB7
:10527000414D45202020204641543332202020003B
:105280004E4F204E414D45202020204641542020A5
:105290002020200000FFFF00F7B582B016460398DB
:1052A000019001A800F0EAFA0546002D02DA0B2071
:1052B00005B0F0BD0E4850F825400CB1002020701C
:1052C000029810B10020029908700949029841F82B
:1052D0002500029808B1012E01D00020E8E7002245
:1052E00003A902A800F006F807463846E0E70000E8
:1052F000E00000202DE9F74F8AB000210A980160F4
:105300000B9800F0BBFA09900998002803DA0B20EB
:105310000DB0BDE8F08FE949099851F820400CB96B
:105320000C20F5E70A980460207878B16078FFF7E0
:10533000B7FB814609F0010040B90C9820B109F093
:10534000040008B10A20E3E70020E1E70020207014
:10535000099860706078FFF733FB814609F001001F
:1053600008B10320D4E70C9820B109F0040008B17B
:105370000A20CDE7607804F10A020221FFF732FB30
:1053800038B96089B0F5007F03DB6089B0F5806FC4
:1053900001DD0120BCE7002739462046FFF79CFAD3
:1053A0000546012D01D09DBB32E000261AE004F530
:1053B000F77000EB061898F8040070B198F80B002D
:1053C000010698F80A0041EA004198F8090041EA0C
:1053D000002098F80810084300E0002002A941F8D6
:1053E0002600761C042EE2D3002606B1761E00BFEE
:1053F00002A850F8267027B139462046FFF76CFA0C
:1054000000E0022005461DB1701C06460428EFD3BB
:10541000032D01D101207BE70DB10D2078E73B2062
:10542000015D94F83C0041EA00206189884201D086
:105430000D206DE74620015D94F8470041EA002AFF
:10544000BAF1000F0ED194F85700010694F85600F7
:1054500041EA004194F8550041EA002094F85410C4
:1054600040EA010AC4F818A04020005DE070E0782E
:10547000012804D0E078022801D00D2048E7E07828
:105480000AFB00FA3D20005DA070A07818B1A0785A
:10549000411E084008B10D203AE74120015D94F813
:1054A000420041EA002020816089C11700EBD161F0
:1054B0004911228992FBF1F301FB132109B10D205F
:1054C00026E74320015D94F8440041EA002008905B
:1054D000089870B994F85300010694F8520041EA14
:1054E000004194F8510041EA002094F8501008431C
:1054F00008903E20015D94F83F0041EA00200190B1
:10550000019808B90D2003E76089C11700EBD1614C
:105510004911228992FBF1F20199514411440791FA
:10552000DDE90710884201D20D20F1E6DDE9071020
:10553000401AA178B0FBF1FBBBF1000F01D10D20A7
:10554000E6E6012540F6F670834500D302254FF6C6
:10555000F670834500D303250BF102006061E7611B
:1055600001983844206207983844A062032D16D170
:10557000208908B10D20CBE694F85F00010694F86D
:105580005E0041EA004194F85D0041EA002094F891
:105590005C100843606260698000069014E0208916
:1055A00008B90D20B4E6206A50446062022D02D191
:1055B0006069400007E0207D00F00100616901EBB7
:1055C000410100EB510006906089401E0699084495
:1055D0006189B0FBF1F0A169884201D90D2097E6FD
:1055E0004FF0FF302061E06080206071032D5AD1C0
:1055F00094F8601094F8610041EA0020012852D12B
:10560000791C204600F030FAE8BB0020607194F865
:105610002E1294F82F0241EA00204AF655218842C2
:1056200041D13320005D01063220005D41EA004196
:105630003120005D41EA002094F8301008432049F1
:10564000884230D194F81702010694F8160241EA14
:10565000004194F8150241EA002094F8141208431E
:10566000184988421FD194F81B02010694F81A02C7
:1056700041EA004194F8190241EA002094F8181216
:105680000843206100E00EE094F81F02010694F840
:105690001E0241EA004194F81D0241EA002094F8FC
:1056A0001C120843E060257007480088401C80B247
:1056B00005490880E08000202AE60000E000002084
:1056C0005252614172724161E800002070B5044697
:1056D0000D46E1B20548FEF78FFC00BF802103486C
:1056E000FEF7ECFB0028F9D0204670BD00380140E1
:1056F0002DE9F05F04460D46022D02D36069A842F1
:1057000002D84FF001098FE04FF0FF3920780128CF
:1057100004D002283CD003287ED157E02F4607EB67
:1057200057076089B7FBF0F0216A00EB010A514688
:10573000204600F099F900B175E038467F1C618978
:10574000B0FBF1F201FB120104F1300010F801800E
:105750006089B7FBF0F0216A00EB010A5146204650
:1057600000F082F900B15EE06089B7FBF0F100FB68
:10577000117104F13000405C48EA002805F0010096
:1057800010B14FEA181001E0C8F30B0081464AE05F
:10579000B4F80AA00AEBDA704010B5FBF0F0216A09
:1057A00000EB010B5946204600F05EF900B13AE0EB
:1057B00068006189B0FBF1F201FB120104F13000D5
:1057C0000E183078717840EA01292CE0B4F80AA06C
:1057D0004FEAEA700AEB90708010B5FBF0F0216A96
:1057E00000EB010B5946204600F03EF900B11AE0EB
:1057F000A8006189B0FBF1F201FB120104F1300055
:105800000E18F0780006B17840EA0140717840EA5D
:1058100001203178084300E002E020F0704902E006
:105820004FF0010900BF00BF4846BDE8F09F0000EF
:1058300010B5FCF74FFC00F5E1440F49204600F09D
:10584000EBF90D48007DA0F2BC7040060A49098AB8
:1058500040EA41500849898940EA0140064989687F
:1058600040EAC1200449496840EA411002490968F8
:1058700040EA510010BD00002800002070B502462B
:105880004FF0FF301568E5B1116800E0491C0D7854
:10589000202D02D30D783A2DF8D10D783A2D0FD165
:1058A000146814F8015BA5F130030A2B07D28C426F
:1058B00005D1022B03D218464D1C2946156070BD38
:1058C000002000BFFBE70000002400BF00BFFFF77F
:1058D00055F8FEF7ABFAFCF73BFC2A48FCF71CFB3B
:1058E000FCF7F8FB00F5E140274908602549264808
:1058F000006800F091F942F20F7141F61F40FEF787
:1059000057FAFBF75FFE0620FBF7ECFD1F48FCF79C
:1059100093F900214FF47840FCF784F91C48038880
:105920001C48028800210846FBF728FCFCF774F9A4
:10593000002519A12846FBF78DFC00201949487065
:10594000012219A11748FFF7A7FC0446FCF764F9E8
:10595000C58816A12846FBF77DFC204600F09EF87E
:10596000FCF75AF9C5882846FCF746F9FCF754F9C4
:10597000C58810A12846FBF76DFCFBF735FB00BF7F
:10598000FEE700002800002044000020280100203D
:105990003A010020380100202020204C43442020E0
:1059A0002020000070070020303A00005445535476
:1059B000205344005344204F4B00000070B5034671
:1059C0000C4603E014F8015B03F8015B1500A2F13B
:1059D0000102F7D170BD30B5034601E003F8011BA9
:1059E0001400A2F10102F9D130BD000010B501464A
:1059F0000869801E0861002805DC08690C30086110
:105A00004869401E48616423486990FBF3F04A6985
:105A1000D31702EB9373C0EBA3004FF4C87492FB4F
:105A2000F4F3034440F26F14086960430C2490FBC4
:105A3000F4F01844CB68034440F26D1402FB0430C8
:105A4000084BC01A00EB40008B6803EBC000C0EBB2
:105A500000104B6803EB8000C0EB00100B6803EBF9
:105A6000800010BD8BFA0A0070B504460D46002672
:105A7000E06AA84210D0204600F0A4F806465EB9BD
:105A8000607801232A4604F13001FEF7DDFF10B1F2
:105A90004FF0FF350126E562304670BD10B5044673
:105AA0000D2C1ED116A0FEF7ADFA002211461EA045
:105AB000FFF7B0F804467CB91CA0FEF7A3FA012258
:105AC00019A10020FFF7E8FB0446012216A11E4899
:105AD000FFF7E2FB044611E01CA0FEF793FA00BFBB
