:020000040800F2
:10000000282E0020410200082122000819170008AC
:100010001D2200088D1000083F2900080000000084
:100020000000000000000000000000009D25000806
:10003000AD13000800000000B1220008CD26000822
:100040005B0200085B0200085B0200085B0200081C
:100050005B0200085B0200085B020008AF130008A7
:100060005B0200085B0200085B0200085B020008FC
:100070005B0200085B0200085B0200085B020008EC
:100080005B0200085B0200085B0200085B020008DC
:100090005B0200085B0200085B0200085B020008CC
:1000A0005B0200085B0200085B0200085B020008BC
:1000B0005B0200085B0200085B0200085B020008AC
:1000C0005B0200085B0200085B0200085B0200089C
:1000D0005B0200085B0200085B0200085B0200088C
:1000E0005B0200085B0200085B0200085B0200087C
:1000F0005B0200085B0200085B0200085B0200086C
:100100005B0200085B0200085B0200085B0200085B
:100110005B0200085B0200085B0200085B0200084B
:100120005B0200085B0200085B0200085B0200083B
:100130005B02000800000000000000005B020008F5
:100140005B0200085B0200085B0200085B0200081B
:100150005B0200085B0200085B0200085B0200080B
:100160005B0200085B0200085B0200085B020008FB
:100170005B0200085B0200080000000000000000B5
:100180005B0200085B02000800F002F800F049F88A
:100190000AA090E8000C82448344AAF10107DA45E2
:1001A00001D100F03EF8AFF2090EBAE80F0013F0EB
:1001B000010F18BFFB1A43F0010318470C51000050
:1001C0002C510000103A24BF78C878C1FAD85207E1
:1001D00024BF30C830C144BF04680C6070470000C1
:1001E0000023002400250026103A28BF78C1FBD840
:1001F000520728BF30C148BF0B607047782900F014
:100200007380002070471FB504F0B7FF9DE803001E
:1002100000F00EFD00F0ECF91FBD10B500F051FA32
:1002200010BD00F0B4FA1146FFF7EDFF04F0DCFA60
:1002300000F0A4FC03B4FFF7F0FF03BC00F08AFE5B
:100240000948804709480047FEE7FEE7FEE7FEE76A
:10025000FEE7FEE7FEE7FEE7FEE7FEE704480549A6
:10026000054A064B70470000D126000889010008A6
:1002700028280020282E0020282A0020282A0020B4
:100280000FB4044910B503AA029800F083F910BC1A
:100290005DF814FB1C27002070B5044685690068D2
:1002A000C10601D5302600E02026C00707D070BD6A
:1002B000D4E9012130469047206A401C20626D1E1F
:1002C000F6D570BD70B5044685690078C00707D1C2
:1002D00070BDD4E9012120209047206A401C206293
:1002E0006D1EF6D570BD000070B504460D46214662
:1002F0001068AFF300802188090502D50F4A7A44BF
:1003000002E00E4A7A440E32002104F1240305E093
:1003100000F00F060009965D5E54491C0028F7D1D5
:1003200020780023000704D5702D02D009B10223E4
:1003300011322046BDE8704000F0D3B82E4F0000C7
:100340002DE9F05F894604464FF0000ADFF824B13A
:10035000FB44C0F820A02046E168884700287DD0F3
:10036000252806D0D4E901219047206A401C20624C
:10037000F1E700255F462046E168884720280646C9
:1003800007DB312E05D2B81910F8200C08B105434F
:10039000F1E7A80701D525F00405C4F81CA0002743
:1003A000C4F818A02A2E09D0304602F0CAFA38B391
:1003B00004EB8708303EC8F8186019E059F8041BB0
:1003C000204604EB87029161E1688847012F0646C9
:1003D00018D1E069002820DA25F020051DE0D8F8C2
:1003E000180000EB800006EB40003038C8F8180019
:1003F0002046E1688847064602F0A3FA0028EED1BD
:10040000012F0AD02E2E08D12046E16888477F1C94
:100410000646022F45F02005C4DBA069002803DA58
:10042000404245F00105A061E80701D025F0100524
:10043000A6B1A6F14100192802D8203645F400657E
:100440004A463146204625604D46FFF7D7FE60B14B
:10045000012807D0ED1D25F0070000E007E000F1BE
:10046000080978E705F1040975E730467AE7206A5C
:10047000BDE8F09F044F000010B5203AC0F00B809B
:10048000B1E81850203AA0E81850B1E81850A0E898
:100490001850BFF4F5AF5FEA027C24BFB1E81850F2
:1004A000A0E8185044BF18C918C0BDE810405FEA62
:1004B000827C24BF51F8043B40F8043B08BF7047DE
:1004C000D20728BF31F8023B48BF11F8012B28BFE3
:1004D00020F8023B48BF00F8012B70477047704777
:1004E00070472DE9F0470D4699469246044600F1C3
:1004F00024080168880604D5E06921F01001216014
:1005000000E00120A84201DD471B00E00027A169AF
:100510007A1902EB0900081AA0612078C00602D4FB
:100520002046FFF7B9FE002608E0D4E901211AF8B9
:1005300006009047206A401C761C20624E45F4DB82
:100540002078C0060AD52046FFF7A6FE06E0D4E9CB
:10055000012130209047206A401C2062381EA7F1FC
:100560000107F4DC07E0D4E9012118F80500904701
:10057000206A401C2062281EA5F10105F3DC2046FC
:10058000FFF7A0FE2078000602D50220BDE8F08724
:100590000120FBE7074B70B50D467B4400F011F8D6
:1005A0000446284600F020F810B14FF0FF3070BD2F
:1005B000204670BD3F40000001694A1C0261087876
:1005C000704700B58FB0CDE9013100210591054993
:1005D0007944CDE9031011466846FFF7B1FE0FB02C
:1005E00000BD0000E5FFFFFF007B00F080007047CA
:1005F00010B54248542100F0D1FA4148542100F08E
:10060000CDFA4048542100F0C9FA3F493B483C4AE2
:100610003F4B08603D490A603A491960531C036525
:10062000481C1065012008653B48344A39A17844CC
:1006300000F008FA20B9384878440A3800F0A7FAE0
:1006400037482F4A35A1784400F0FCF920B93448E6
:1006500078440A3800F09BFA32482A4A2FA178449D
:1006600000F0F0F920B92F4878440A3800F08FFAEA
:1006700040232248DC000021224600F0BFF920B1CF
:1006800025487844543800F082FA1D482246402319
:10069000002100F0B3F920B121487844543800F02B
:1006A00076FA184822461023002100F0A7F9002806
:1006B00006D01C487844BDE81040563800F067BAB0
:1006C00010BD104870B5006D20F001040B4800F01B
:1006D0002FFA0B4800F02CFA0A4800F029FA09E03A
:1006E000206D20F00105204600F022FA204600F09F
:1006F00073F82C46002CF3D170BD0000C8260020F2
:100700001C2700207027002090000020940000206B
:100710009800002072000000374C000077000000B5
:10072000234C00000F4C00000EB5CDE9000100F095
:10073000F1FB029069460120ABBE0EBD08B56946CB
:1007400000900220ABBE08BD1FB58DE807006946CA
:100750000520ABBE04B010BD1FB58DE80F00694683
:100760000620ABBEF6E708B5694600900920ABBE8F
:1007700008BD1CB5CDE9000169460A20ABBE1CBD11
:10078000704708B5694600900C20ABBE08BD7546A1
:1007900000F02CFAAE4605006946534620F00700EB
:1007A000854618B020B5FFF759FDBDE820404FF051
:1007B00000064FF000074FF000084FF0000B21F04B
:1007C0000701AC46ACE8C009ACE8C009ACE8C00918
:1007D000ACE8C0098D46704770B50446051F00F0AF
:1007E0000BFA0068002C14BF446870BD002C18BFC1
:1007F000AC423CBF20466468F8D301680A18AA429C
:1008000018BF456003D12A68054611440160286875
:100810004119A1421CBF6C6070BD616869602168AC
:100820000844286070BD2DE9F04705460C46C868AD
:1008300020F4201040F48000C860800602D50846ED
:1008400000F027FBE06841F282014FF0FF390140E0
:10085000022903D0204600F0C5FAB5E000F420419B
:10086000B1F5004F0FD1C00306D56168E06A884238
:1008700000D80846606006E02069E0626060606958
:10088000FFF77FFFA061A0680022EEB200280DDA1A
:10089000E1688B050AD4C043A06041F49030226027
:1008A000E0606068411C61600670A5E0E068904609
:1008B000226040F40050E060206968BB6069FFF787
:1008C00052FF012704F12405A0B1A08910F4407F54
:1008D00008D0E06900F0DBF9206118B1E06840F46D
:1008E000006016E0E7612561E06820F4407040F4A4
:1008F00080600EE0E06900F0CAF900282061F1D0C4
:10090000E06840F4006010F4407FE06002D140F401
:100910008070E06020696060E06825696FF0010A1E
:10092000C1051FD56168E06A884200D80846411BAE
:1009300004D02246284600F05FFAF0BBE0680102CE
:1009400003D5E562C4E9015854E0691CE1626160C5
:10095000E16940F48030491EC4E9021030462E702F
:10096000BDE8F087010202D500F480320AE0606839
:10097000411C61600670E0680A2E40F48030E0603F
:1009800006D00022E16A6068814203D90B4602E08A
:100990000122F7E70346A7895B1B7F0503D4E769BC
:1009A0009F4200DDE2B1814200D80146E5620F1AA4
:1009B000C4E90158002B09DD00E005E02246194694
:1009C000284600F019FA08B14846C9E747B1A069BE
:1009D000E5626560C01BA061E06840F01000E06067
:1009E000E068000208D56168A069E562491B084417
:1009F0006560A0615046B3E73046B1E770B5C468A2
:100A0000A50713D0650211D4B2F5807F09D0B2F5E5
:100A1000007F06D0B2F5806F08D1012300F12401D8
:100A200006E05D1E6FF07F46B54201D3012070BD28
:100A30000161C361416024F470611143C160002011
:100A400070BD00002DE9F0410C46074616461046E1
:100A500000F06EF82078611C61280AD0722802D05C
:100A600077283CD102E00125002405E0022504247A
:100A700002E0082448F2020511F8010B2B2806D0E9
:100A8000622809D011F8010C74280AD00BE045F057
:100A9000030544F00204EFE745F0040544F00104C7
:100AA000EAE744F0100438462146FFF73DFE411CBA
:100AB00015D00021316171604FF40071F560F16172
:100AC0007061200704D530460222002100F00EF9A3
:100AD000306D40F0010030653046BDE8F081002007
:100AE000FBE72DE9F0410D460646104C206DC1078D
:100AF00004D0410804D020F00104F7E722460EE0BC
:100B0000542000F0C4F807000ED0206D47F001011A
:100B1000084354212065384600F040F83A462946FB
:100B20003046BDE8F0418DE70020D6E7C82600201A
:100B30002DE9F04704464FF000094FF0FF37C56834
:100B4000D4E90486A80707D0204600F07FF9304694
:100B5000FFF7F4FD002802DA3846BDE8F0872805E3
:100B600002D54046FFF738FE4C21204600F016F82B
:100B7000206D20F0010020654846EEE710B50446E0
:100B8000AFF300802046BDE81040FFF753BB10B51F
:100B900000F0A6F9BDE8104000F09CB94FF000024B
:100BA00000B5134694469646203922BFA0E80C5063
:100BB000A0E80C50B1F12001BFF4F7AF090728BF3E
:100BC000A0E80C5048BF0CC05DF804EB890028BFBA
:100BD00040F8042B08BF704748BF20F8022B11F0E3
:100BE000804F18BF00F8012B704700000048704785
:100BF000C42700207047000000487047CC27002021
:100C0000704770477047704738B504460A46002061
:100C10006946AFF30080002808BF38BD024600993E
:100C2000204600F0A4F9012038BD012000F0F3B9FE
:100C3000F8B5AFF30080054600200C46102000BF39
:100C40000646A819A0420DD9324669460020AFF3E6
:100C50000080070008BF00F0DEF90098A04218BF2E
:100C60000546C419FFF7C8FF05600746F01D20F0D0
:100C700007004619284600F073F9B44208BFF8BDD2
:100C8000A21B31463868BDE8F84000F070B970B575
:100C90000646FFF7B1FF056806F10B0020F00704D8
:100CA000B4429CBF002070BD2B466A68BAB1106880
:100CB000A04210D304F1080188423CBF506858603C
:100CC00007D35168101941601168091B0160586011
:100CD0001460101D70BD13465268002AE7D12146EA
:100CE0002846FFF791FF0028DED170BD2DE9F041C5
:100CF000044616460D464769007B80072ED03846CD
:100D0000FFF731FD50BB3EB3012E02D0022E25D19C
:100D100004E0204600F045F905441DE03846FFF7A1
:100D200030FDE168002841F01001E16005DA20465D
:100D300000F058F80120BDE8F081C9030BD56268C6
:100D4000E16A914200D81146A26911442269891AC8
:100D5000814200DD08460544002D01DA0220EAE761
:100D6000E16A6068E268814206D29103E06203D5DD
:100D700022F4003141F01002A6690027AE4213DCD4
:100D8000E16A814201D90B4600E0034603EB060C01
:100D90002369ACEB030CAC4506DD814201D98C46DE
:100DA00000E084469C4505D1A760276042F0200002
:100DB000A5620DE0AD1BE669AE1B8142A66000D9BD
:100DC0000846C01A281A20605819606022F02000D6
:100DD00003490840E060002084F84870ABE7000059
:100DE000BFCFD7FFC16821F4001141F08001C1607D
:100DF00000218160016070472DE9F047814614466B
:100E00000E464FF0FF383248D5685769054209D081
:100E10003846A169FFF7ADFC002811DB2C48C04320
:100E20000540E5602B46324649463846FFF78CFCC4
:100E3000A16920F00042B21A11440028A16103D038
:100E40002046FFF7CFFF4046BDE8F08770B5044667
:100E50000569C06A6168884200D80846E16821F4E3
:100E60002011E160C90312D5A84208D02246411BD7
:100E70002846FFF7C1FF10B14FF0FF3070BD0020D2
:100E8000E562C4E90150E06820F48030E0600020B1
:100E900070BD10B50446C06820F02000E060A16A73
:100EA000A06988420DD02046FFF7D0FFE06820F40B
:100EB000405040F01000E060A06AA0612069E0624C
:100EC000606044F24001E0688843E06010BD0000CB
:100ED00010000200002801D000F03CB8704700006C
:100EE00010B5014602A000F07DF8012010BD000001
:100EF00053494752545245443A20526564697265D9
:100F000063743A2063616E2774206F70656E3A20B7
:100F10000000000010B5431C02E010F8011B71B185
:100F20008107FAD14FF0013202C88C1A8C4314EABF
:100F3000C211F9D0C01A0A0603D0C01E10BDC01AD3
:100F400010BD0A0401D0801E10BD0902FCD0401E55
:100F500010BD000001491820ABBEFEE726000200CC
:100F600000210160C0E9011070471020704703465E
:100F700040688C46002818BF88423CBF0346406842
:100F8000F8D318681844884207D00CF1030020F009
:100F90000700001D411A521A0146081D0A60FFF79A
:100FA0001BBC10B50146C268900703D0900607D558
:100FB000886A0AE000F03EF801210160881E10BD39
:100FC0008B69486818440B69C01A91F848301BB106
:100FD00091F84910401A10BD1103FCD50028FADD24
:100FE000401E10BD70B505460C460A2000E06D1C81
:100FF00000F018F835B128780028F8D102E0641C18
:1010000000F010F814B120780028F8D1BDE8704045
:101010000A2000F007B810B500F010F8BDE8104045
:10102000FFF758BF08B569468DF800000320ABBE36
:1010300008BD000000487047C427002010B50128F3
:1010400005D0002103A0FFF7CDFF012010BD09A1AD
:10105000F8E7000053494752544D454D3A204F752B
:1010600074206F662068656170206D656D6F7279A0
:10107000000000003A2048656170206D656D6F7258
:101080007920636F727275707465640000BFFEE74B
:1010900039B1084A1268012383401A43054B1A608C
:1010A00006E0044A1268012383409A43014B1A6008
:1010B000704700000074004041B1094A12684FF4C3
:1010C000805383401A43064B1A6007E0044A1268B3
:1010D0004FF4805383409A43014B1A6070470000DD
:1010E0000074004010B50121480701F013F90021F8
:1010F0004FF0005001F00EF910BD000030B5002295
:1011000000230A4C226840F6FE748440A243D1E9D1
:1011100000452C438D682C43CD6844EA050303FA4F
:1011200000F42243014C226030BD000000740040F6
:101130000246094B9A4201D2084801E0064810389D
:1011400001F000531BB1064B0B40C36002E0044B9F
:101150000B40836070470000106402400060024052
:101160007D0F7D0F21B1026842F00102026003E0B1
:10117000026822F00102026070470000016821F05D
:10118000010101600021016041608160C160016175
:10119000212141614A49884204D13D21484A103AFF
:1011A00091608CE046491831884205D14FF4746152
:1011B000434A103A916082E041493031884205D17A
:1011C0004FF474113E4A103A916078E03C4948313E
:1011D000884205D14FF07461394A103A91606EE04F
:1011E00037496031884204D13649354A103AD160D6
:1011F00065E033497831884204D13349304A103AA6
:10120000D1605CE02E499031884204D12F492C4AAC
:10121000103AD16053E02A49A831884205D14FF0F5
:101220003D51274A103AD16049E02949884204D10A
:101230003D21274A083A116041E02549183188428A
:1012400005D14FF47461224A083A116037E0204911
:101250003031884205D14FF474111D4A083A1160AB
:101260002DE01B494831884205D14FF07461184A7E
:10127000083A116023E016496031884204D11149CF
:10128000134A121F11601AE011497831884204D1C3
:101290000D490F4A121F116011E00D49903188422B
:1012A00004D10A490A4A121F116008E00849A8310E
:1012B000884204D14FF03D51054A121F116070471A
:1012C000106002403D000020400F002000003D2043
:1012D0001064024030B503460A46002000240B4D3E
:1012E000AB4201D20A4901E00849103902F0005529
:1012F0000DB14C6800E00C68064D2C4004EA020574
:101300000DB1012000E0002030BD0000106402405B
:10131000006002407D0F7D0F10B501F080034BB1DE
:1013200022B1436943F08003436103E0436923F042
:101330008003436180290BD02AB1036801F01E04A9
:101340002343036004E0036801F01E04A343036029
:1013500010BD000010B500220268134B1A40CC6883
:101360000B6823434C6923438C692343CC69234393
:101370000C6A23434C6A23438C6A23434C6B2343FC
:101380008C6B23431A430260426922F00702D1E9C1
:101390000B3423431A4342610B6943604B688360FB
:1013A0008B68C36010BD00003F801CF0704710B513
:1013B000012000F00BF810B1022000F001F810BD80
:1013C0000149086070470000143C014001460020BC
:1013D000034A12680A400AB1012000E00020704769
:1013E000143C0140002123498279002A3AD00A4660
:1013F000126803689A430B461A600A1D1268036854
:101400009A430B1D1A60027911440A6803681A4353
:101410000A60184A0832126803689A43154B083369
:101420001A601A1D126803689A43124B0C331A6033
:101430004279102A0ED11A1F126803681A430D4B05
:1014400008331A601A1D126803681A43094B0C33DB
:101450001A600DE00749427911440A6803681A438B
:101460000A6005E0027911440A6803689A430A6039
:1014700070470000003C014000B585B0012102200A
:1014800000F018FF0121880300F054FF00208DF8C0
:1014900008008DF80B000220019001A9134800F00C
:1014A000C3F80121084601F07BF8022003900020D8
:1014B0008DF8100008208DF8110001208DF8120021
:1014C00003A8FFF78FFF4FF4A06000F0E7FE0720AE
:1014D0008DF8000001208DF801008DF802008DF8D4
:1014E0000300684600F09EFE05B000BD0004024007
:1014F00010B504464148844208D10121084600F055
:10150000E9FE0021012000F0E5FE76E03C4884423F
:1015100008D10121022000F0DDFE0021022000F0B0
:10152000D9FE6AE03748844208D10121042000F046
:10153000D1FE0021042000F0CDFE5EE0324884425E
:1015400008D10121082000F0C5FE0021082000F08C
:10155000C1FE52E02D48844208D10121102000F044
:10156000B9FE0021102000F0B5FE46E02848844274
:1015700008D10121202000F0ADFE0021202000F044
:10158000A9FE3AE02348844208D10121402000F01E
:10159000A1FE0021402000F09DFE2EE01E48844266
:1015A00008D10121802000F095FE0021802000F06C
:1015B00091FE22E01948844208D10121801500F0F3
:1015C00089FE0021A01500F085FE16E01448844233
:1015D00008D10121401500F07DFE0021601500F0CA
:1015E00079FE0AE00F48844207D10121001500F07E
:1015F00071FE0021201500F06DFE10BD00000240BC
:101600000004024000080240000C024000100240AA
:101610000014024000180240001C0240002002405A
:101620000024024000280240F0B50A4600210023B1
:10163000002400BF3DE0012505FA01F3156805EA25
:1016400003049C4234D105684F000326BE40B543D5
:10165000056015794E00B54006683543056015797B
:10166000012D02D01579022D16D185684F00032671
:10167000BE40B543856055794E00B5408668354318
:101680008560456801268E40B5434560456896797A
:101690008E40B6B235434560C5684F000326BE4054
:1016A000B543C560D5794E00B540C6683543C560C1
:1016B000491C1029BFD3F0BDF0B5002300244D070D
:1016C000ED0E02FA05F3CE1000F1200555F8265074
:1016D0004E07F70E0F26BE40B543CF1000F120068F
:1016E00046F82750CE1000F1200555F8265045EA5F
:1016F0000304CE1000F1200545F82640F0BD024657
:10170000002013690B400BB1012000E0002070475E
:10171000418370470183704700BFFEE74CF6CC4021
:101720000149086070470000003000404AF6AA20D6
:1017300001490860704700000030004001494860DE
:101740007047000000300040014988607047000089
:101750000030004001490860704700000030004040
:1017600030B589B00446FF220021092001F032F98A
:10177000C5B215B1284609B030BD0122102105A817
:1017800001F0E6F808B10120F5E7FF2200210A2068
:1017900001F020F9C5B20DB12846ECE70122102175
:1017A00001A801F0D5F808B10220E4E79DF8140083
:1017B000800920709DF81400C0F3830060709DF8CC
:1017C000140000F00300A0709DF81500E0709DF873
:1017D000160020719DF8170060719DF81800000137
:1017E000E080E0889DF8191040EA1110E0809DF833
:1017F000190000F00F0020729DF81A00C0096072F5
:101800009DF81A00C0F38010A0729DF81A00C0F372
:101810004010E0729DF81A00C0F300102073002001
:1018200060739DF81A008007000D206120699DF803
:101830001B1040EA8100206120699DF81C1040EADD
:10184000911020619DF81C00C0F3C20020759DF826
:101850001C0000F0070060759DF81D004009A07590
:101860009DF81D00C0F38200E0759DF81D00800703
:10187000400F2076207E9DF81E1040EAD110207681
:101880009DF81E00C0F3840060769DF81E0080075E
:10189000C00EA076A07E9DF81F1040EA5110A076E1
:1018A0009DF81F0000F01F00E0769DF82000C009A1
:1018B00020779DF82000C0F3411060779DF820004C
:1018C000C0F38200A0779DF820008007000FE0772A
:1018D000E07F9DF8211040EA9110E0779DF821000B
:1018E000C0F3401084F82000002084F821009DF807
:1018F000210000F0010084F822009DF82200C009B8
:1019000084F823009DF82200C0F3801084F824009E
:101910009DF82200C0F3401084F825009DF82200B5
:10192000C0F3001084F826009DF82200C0F3810067
:1019300084F827009DF8220000F0030084F82800B6
:101940009DF82300400884F82900012084F82A002B
:1019500094F84E00042808D19DF81C000002206174
:1019600020699DF81D10084420612069C00460644E
:101970004FF40070A0649DF8040084F82C009DF8DA
:1019800005000102E185E08D9DF806100843E08521
:101990009DF8070001062163206B9DF8081040EABE
:1019A00001412163206B9DF8091040EA0121216368
:1019B000206B9DF80A10084320639DF80B1034201B
:1019C00001559DF80C10352001559DF80D000106BC
:1019D000A163A06B9DF80E1040EA0141A163A06BCA
:1019E0009DF80F1040EA0121A163A06B9DF8101033
:1019F0000843A0633C20005D9DF8111040EA1111DE
:101A00003C2001559DF811000007010DE187E08F92
:101A10009DF812100843E0879DF81300410840200C
:101A200001550121412001550020A4E67CB500208C
:101A3000009001900121A848FFF761FE28B1A7A0FE
:101A4000FEF71EFC4FF0FF307CBD002401E0601C5F
:101A500084B2FF2CFBDD002404E0FF2001F032F80B
:101A6000601C84B20A2CF8DB00240BE095220021D4
:101A7000084600F0AFFFC5B2012D01D1002405E0FA
:101A8000601C84B240F6FF708442EFDB00BF40F67A
:101A9000FF70844204D199A0FEF7F2FB0120D3E746
:101AA00087224FF4D571082000F0D4FFC5B2052D70
:101AB00076D101209B4981F84E0010219A48FFF70A
:101AC00029FEFF2000F0FEFF002418E0002211464E
:101AD000372000F07FFFC5B2012D05D0294693A025
:101AE000FEF7CEFB2846AFE700221146292000F082
:101AF00071FFC5B20DB9002405E0601C84B240F648
:101B0000FF708442E2DB00BF40F6FF70844223D1C5
:101B100000240AE000221146012000F05BFFC5B25C
:101B20000DB9002405E0601C84B240F6FF708442C9
:101B3000F0DB00BF40F6FF70844205D1294688A043
:101B4000FEF79EFB02207FE70020764981F84E00D9
:101B50008FA0FEF795FB02E097A0FEF791FB012016
:101B600000F034FA012200213B2000F033FFC5B21F
:101B70002DB129469AA0FEF783FB284664E7FF2291
:101B80004FF40071102000F025FFC5B2002D7CD06D
:101B9000294600E004E09FA0FEF772FB284653E7C9
:101BA000012D72D1FF2000F08DFFC0B28DF8000032
:101BB000FF2000F087FFC0B28DF80100FF2000F089
:101BC00081FFC0B28DF80200FF2000F07BFFC0B2A1
:101BD0008DF8030010215448FFF79CFDFF2000F012
:101BE00071FF9DF80200012873D19DF80300AA2817
:101BF0006FD1002419E000221146372000F0EAFEE0
:101C0000C5B2012D05D0294648A0FEF739FB28466C
:101C10001AE700224FF08041292000F0DBFEC5B218
:101C20000DB9002405E0601C84B240F6FF708442C8
:101C3000E1DB00BF40F6FF70844205D1294682A057
:101C4000FEF71EFB0320FFE6002211463A2000F0BB
:101C500001FFC5B22DB1294688A0FEF711FB284629
:101C6000F2E6FF2000F02EFFC0B28DF80000FF204A
:101C700000F028FFC0B28DF80100FF2000F022FF25
:101C8000C0B28DF80200FF2000E022E000F01AFF51
:101C9000C0B28DF8030010212348FFF73BFDFF2061
:101CA00000F010FF9DF8000000F0400038B1042063
:101CB0001C4981F84E007EA0FEF7E2FA06E0022001
:101CC000184981F84E0085A0FEF7DAFA012000F0ED
:101CD0007DF90020B8E600000004024054686572F7
:101CE00065206973206E6F2063617264206465747F
:101CF000656374656421200D0A00000052657365F8
:101D000074206361726420696E746F2049444C458D
:101D1000207374617465206661696C6564210D0AC5
:101D200000000000702600200000024053656E6431
:101D300020434D4435352073686F756C642072659F
:101D40007475726E20307830312C20726573706F2C
:101D50006E73653D3078253032780D0A0000000042
:101D600053656E6420434D44312073686F756C6415
:101D70002072657475726E20307830302C20726558
:101D800073706F6E73653D3078253032780D0A00C0
:101D90004361726420547970652020202020202027
:101DA00020202020202020202020202020203A2019
:101DB0004D4D430D0A000000436172642054797058
:101DC00065202020202020202020202020202020CE
:101DD0002020202020203A2053442056310D0A0094
:101DE00053656E6420434D4435392073686F756CBC
:101DF000642072657475726E20307830302C2072D9
:101E00006573706F6E73653D3078253032780D0ADA
:101E10000000000053656E6420434D44313620734A
:101E2000686F756C642072657475726E20307830DE
:101E3000302C20726573706F6E73653D307825307D
:101E400032780D0A0000000053656E642041434D56
:101E50004434312073686F756C64207265747572D8
:101E60006E20307830302C20726573706F6E736521
:101E70003D3078253032780D0A00000053656E64DD
:101E800020434D4435382073686F756C642072654B
:101E90007475726E20307830302C20726573706FDC
:101EA0006E73653D3078253032780D0A00000000F1
:101EB0004361726420547970652020202020202006
:101EC00020202020202020202020202020203A20F8
:101ED000534420563248430D0A00000043617264A7
:101EE00020547970652020202020202020202020D0
:101EF000202020202020202020203A20534420563B
:101F0000320D0A002DE9F04105460E4617461C48E1
:101F100090F84E00042800D06D02002229461220BD
:101F200000F058FD00F0FF08B8F1000F02D00120CA
:101F3000BDE8F081002413E006EB442000224FF4BA
:101F4000007100F005FD50B1002211460C2000F098
:101F500041FD10210B48FFF7DDFB0220E8E7641C80
:101F6000BC42E9D3002211460C2000F033FD1021C1
:101F70000448FFF7CFFBFF2000F0A4FD0020D7E7C7
:101F8000702600200000024070B504460E460E4840
:101F900090F84E00042800D064020022214611204F
:101FA00000F018FDC5B20DB1012070BD0122510233
:101FB000304600F0CDFCC5B2002211460C2000F0E6
:101FC00009FD2846F1E700007026002010B586B014
:101FD0000446154800F05EFA0020ADF804004FF406
:101FE0008270ADF806000020ADF808000220ADF8C0
:101FF0000A000120ADF80C004002ADF80E000020F0
:10200000ADF812000720ADF814001CB93820ADF867
:10201000100002E02020ADF8100001A9024800F0F5
:102020009FFA06B010BD0000003001402DE9F047D6
:1020300005460E461746454890F84E00042800D045
:102040006D02424890F84E0020B100223946172018
:1020500000F0C0FC00222946192000F0BBFCC4B2ED
:1020600014B10120BDE8F08710213948FFF750FB7B
:10207000FF2000F027FDFF2000F024FDFF2000F0EE
:1020800021FD4FF000083AE0FC2000F01BFD4FF06E
:10209000000907E016F8010B00F014FD09F101003A
:1020A0001FFA80F9B9F5007FF4DBFF2000F00AFD8C
:1020B000FF2000F007FDFF2000F004FDC4B204F093
:1020C0001F00052805D010212148FFF723FB02201F
:1020D000C8E74FF0000A0BE050460AF1010AB0F5DC
:1020E000802F05D110211A48FFF714FB0320B9E710
:1020F000FF2000F0E7FCFF28EED108F10108B84509
:10210000C2D3FD2000F0DEFCC4B20CB90420A9E764
:102110004FF0000A0BE050460AF1010AB0F5802F9B
:1021200005D110210A48FFF7F5FA05209AE7FF20AC
:1021300000F0C8FCFF28EED110210548FFF7EAFAAD
:10214000FF2000F0BFFC00208CE70000702600207C
:10215000000002402DE9F04104460D462D4890F85C
:102160004E00042800D0640200222146182000F00E
:1021700031FCC6B216B10120BDE8F081102126481D
:10218000FFF7C6FAFF2000F09DFCFF2000F09AFC4C
:10219000FF2000F097FCFE2000F094FC002705E0F3
:1021A00015F8010B00F08EFC781C87B2B7F5007FA4
:1021B000F6DBFF2000F086FCFF2000F083FCFF2010
:1021C00000F080FCC6B206F01F00052805D01021E3
:1021D0001148FFF79FFA0220CEE74FF000080BE00E
:1021E000404608F10108B0F5802F05D110210A48BA
:1021F000FFF790FA0320BFE7FF2000F063FC002800
:10220000EED010210448FFF785FAFF2000F05AFCB9
:102210000020B1E7702600200000024000BFFEE76A
:102220007047000070B5002100230F22C4781CB352
:10223000174C246804F4E064C4F5E064C4F3072197
:10224000C1F10404E3B20A4144789C40E1B28478CD
:10225000144021430C07210E0E4C0578615504787B
:1022600004F01F050124AC4005786D11AD0005F1A7
:10227000E025C5F8004109E0047804F01F050124B9
:10228000AC40054D0678761145F8264070BD00003B
:102290000CED00E000E400E080E100E002490143D1
:1022A000024A1160704700000000FA050CED00E0E2
:1022B0007047000029B1064A12680243044B1A60B5
:1022C00004E0034A12688243014B1A607047000021
:1022D0003038024029B1064A12680243044B1A60A2
:1022E00004E0034A12688243014B1A607047000001
:1022F0001038024029B1064A12680243044B1A60A2
:1023000004E0034A12688243014B1A6070470000E0
:102310004038024029B1064A12680243044B1A6051
:1023200004E0034A12688243014B1A6070470000C0
:102330002038024029B1064A12680243044B1A6051
:1023400004E0034A12688243014B1A6070470000A0
:102350004438024029B1064A12680243044B1A600D
:1023600004E0034A12688243014B1A607047000080
:1023700024380240F0B50021002200240225002666
:102380000223324F3F6807F00C0121B1042905D028
:10239000082937D105E02E4F076036E02D4F076042
:1023A00033E02A4F3F1F3F68C7F38056274F3F1F38
:1023B0003F6807F03F036EB1264FB7FBF3F7DFF836
:1023C0008CC0ACF1040CDCF800C0CCF3881C07FB1B
:1023D0000CF40CE01E4FB7FBF3F7DFF870C0ACF164
:1023E000040CDCF800C0CCF3881C07FB0CF4174F7E
:1023F0003F1F3F68C7F301477F1C7D00B4FBF5F723
:10240000076002E0124F076000BF00BF0F4F3F6838
:1024100007F0F0010909104F7A5C0768D740476060
:102420000A4F3F6807F4E051890A0B4F7A5C47680E
:10243000D7408760054F3F6807F46041490B064F5E
:102440007A5C4768D740C760F0BD0000083802409A
:102450000024F40040787D01140000200149086048
:1024600070470000800E474221B1028842F04002CE
:10247000028004E002884FF6BF731A400280704762
:102480001AB183880B43838002E083888B43838067
:102490007047000010B504462448844208D1012149
:1024A0008014FFF757FF0021A014FFF753FF3CE013
:1024B0001F48844208D101210014FFF72BFF00219F
:1024C0002014FFF727FF30E01A48844208D1012189
:1024D000C013FFF71FFF0021E013FFF71BFF24E0ED
:1024E0001548844208D101214014FFF733FF002131
:1024F0006014FFF72FFF18E01048844209D1012132
:102500000805FFF727FF00214FF48010FFF722FF97
:102510000BE00B48844208D101214805FFF71AFF60
:1025200000214FF40010FFF715FF10BD00300140EF
:1025300000380040003C00400034014000500140A1
:10254000005401400246002013890B400BB10120CA
:1025500000E00020704701468889704781817047FC
:1025600010B50022028802F441520B884C882343A4
:102570008C882343CC8823430C8923434C892343F1
:102580008C892343CC8923431A430280838B4FF2E7
:10259000FF74234083830B8A038210BD70470000C1
:1025A00030B500228B071C0F0F2303FA04F20B4BEC
:1025B0008C1053F824309343084C8D1044F8253088
:1025C00023468C1053F824308C07240F00FA04F4AF
:1025D0002343024C8D1044F8253030BD08380140AB
:1025E0000CB50020019000903448006840F4803021
:1025F0003249086000BF3148006800F400300090A4
:102600000198401C0190009818B90198B0F5A04FAE
:10261000F1D12A48006800F4003010B10120009088
:1026200001E0002000900098012846D12348403066
:10263000006840F08050214940310860204800681F
:1026400040F440401E4908601C48083000681B499F
:10265000083108600846006840F4004008600846F9
:10266000006840F4A05008601648091F0860081F61
:10267000006840F08070091F086000BF0F480068C4
:1026800000F000700028F9D040F205700E49086093
:102690000A480830006820F0030008490831086043
:1026A0000846006840F00200086000BF0348083098
:1026B000006800F00C000828F8D10CBD003802407A
:1026C0000070004019544007003C02407047000071
:1026D00010B51548006840F47000134908601348AD
:1026E000006840F001001149086000200F490831DE
:1026F00008600E4800680E4908400C4908600D4803
:10270000091D0860081F006820F48020091F086068
:10271000002006490C310860FFF762FF4FF00060AF
:1027200001498039086010BD88ED00E000380240A2
:10273000FFFFF6FE1030002421B1028842F00102B2
:10274000028004E002884FF6FE731A400280704750
:1027500082884FF68F731A40828082880A43828073
:102760007047000000220288184B98420ED0184B88
:1027700098420BD0B0F1804F08D0164B984205D04C
:10278000154B984202D0154B984204D14FF68F73E7
:102790001A404B881A43124B984207D0114B98426B
:1027A00004D04FF6FF431A400B891A4302804B684E
:1027B000C3620B880385054B984202D0044B9842B4
:1027C00001D18B7A03860123838270470000014088
:1027D000000401400004004000080040000C0040DC
:1027E000001000400014004021B1828942F40052E0
:1027F000828104E082894DF6FF731A40828170471E
:10280000F0B50346002400260025002040F66A1794
:10281000B94200D100BF1846C1F3421401F01F06AF
:10282000012707FA06F5012C01D10C3004E0022C37
:1028300001D1103000E014301AB107682F4307604F
:1028400002E00768AF430760F0BD00002DE9FF47D5
:1028500005460E460024A14600BFA046B08900B13F
:1028600000BF2C8A24F44054F08804432C82AC89A5
:1028700041F20C608443B088318908437189084370
:102880000443AC81AC8A24F44074B0890443AC8224
:102890006846FFF76FFD2048854202D01F488542F9
:1028A00002D1DDF80C9001E0DDF80890A88900F471
:1028B000004040B109EBC90000EB09103168490044
:1028C000B0FBF1F707E009EBC90000EB0910316834
:1028D0008900B0FBF1F76420B7FBF0F00401200998
:1028E000642101FB1078A88900F4004040B1322037
:1028F00000EBC800B0FBF1F000F00700044308E073
:10290000322000EB08106421B0FBF1F000F00F0062
:1029100004432C81BDE8FF870010014000140140F2
:1029200021B1828942F40042828103E08289C2F3AC
:102930000E0282817047C1F308028280704700BF97
:10294000FEE730380A2801D2012070470020704786
:102950002DE9F04105460E46174610211C48FEF7AA
:10296000D7FE00240BE0FF2000F0ACF800F0FF08D9
:10297000B8F1FE0F01D1002404E0601C84B2B4F56C
:10298000FA6FF0DB00BFB4F5FA6F06D110211048E2
:10299000FEF7C0FE0120BDE8F081002405E0FF2025
:1029A00000F090F82855601C84B2B442F7DBFF2099
:1029B00000F088F8FF2000F085F837B110210448B6
:1029C000FEF7A8FEFF2000F07DF80020E3E70000FE
:1029D000000002402DE9F04106460C461746FF2054
:1029E00000F070F810211A48FEF792FE46F0400001
:1029F00000F068F8200E00F065F8C4F3074000F01E
:102A000061F8C4F3072000F05DF8E0B200F05AF876
:102A1000384600F057F84FF000080AE0FF2000F0B9
:102A200051F8C5B2FF2D00D006E008F1010000F01A
:102A3000FF08B8F1C80FF1DB00BF10210448FEF712
:102A400069FEFF2000F03EF82846BDE8F081000056
:102A5000000002402DE9F04106460C461746FF20D3
:102A600000F030F810211648FEF752FE46F0400004
:102A700000F028F8200E00F025F8C4F3074000F01D
:102A800021F8C4F3072000F01DF8E0B200F01AF8B6
:102A9000384600F017F84FF000080AE0FF2000F079
:102AA00011F8C5B2FF2D00D006E008F1010000F0DA
:102AB000FF08B8F1C80FF1DB00BF2846BDE8F08180
:102AC0000000024010B5044600BF02210948FFF78C
:102AD00039FD0028F9D021460648FFF73FFD00BF29
:102AE00001210448FFF72EFD0028F9D00148FFF727
:102AF00032FD10BD0030014070B504460D466078CF
:102B000001232A4604F1300100F054FD08B10320EE
:102B100070BD94F82E1294F82F0241EA00204AF674
:102B20005521884201D00220F2E794F8690001069D
:102B300094F8680041EA004194F8670041EA0020F7
:102B400094F86610084320F07F400E49884201D176
:102B50000020DDE794F88500010694F8840041EA3E
:102B6000004194F8830041EA002094F88210084361
:102B700020F07F400349884201D10020C8E70120AE
:102B8000C6E7000046415400024600E0521C10789F
:102B900010B110788842F9D1107870472DE9F74FBD
:102BA00086B006980068009000980078303805904C
:102BB000059809280AD8009840783A2806D1009844
:102BC000801C009006990098086001E000200590A4
:102BD000059818B10B2009B0BDE8F08FC7490598DA
:102BE00051F82040079804600CB90C20F3E72078D6
:102BF00078B1607800F007FD804608F0010040B928
:102C0000089820B108F0040008B10A20E3E700208A
:102C1000E1E70020207005986070607800F07FFC8C
:102C2000804608F0010008B10320D4E7089820B1DD
:102C300008F0040008B10A20CDE74FF0000A514621
:102C40002046FFF759FF0546012D13D104F5F7770C
:102C5000387978B1F87A0106B87A41EA0041787A91
:102C600041EA0020397A40EA010A51462046FFF73E
:102C700043FF0546032D01D10120ACE70DB10D2026
:102C8000A9E73B20015D94F83C0041EA0020B0F543
:102C9000007F01D00D209EE74620015D94F847009B
:102CA00041EA0029B9F1000F0ED194F8570001064E
:102CB00094F8560041EA004194F8550041EA00209A
:102CC00094F8541040EA0109C4F81C904020065DB5
:102CD000E670012E03D0022E01D00D207BE709FB08
:102CE00006F93D20005D0646A07016B1701E30400A
:102CF00008B10D206FE74120015D94F8420041EAE0
:102D000000202081207A00F00F0008B10D2062E73A
:102D10004320015D94F8440041EA002004900498A7
:102D200070B994F85300010694F8520041EA00414A
:102D300094F8510041EA002094F8501008430490A0
:102D40003E20015D94F83F0041EA00200190019887
:102D500008B90D203FE701984844218900EB111084
:102D60000390DDE90301814201D20D2033E7DDE963
:102D70000310401AA178B0FBF1FBBBF1000F01D1A9
:102D80000D2028E7012540F6F670834500D3022583
:102D90004FF6F670834500D303250BF10200A061C6
:102DA00003985044A062019850442062032D16D12C
:102DB000208908B10D200EE794F85F00010694F811
:102DC0005E0041EA004194F85D0041EA002094F879
:102DD0005C1008436062A0698000029014E02089C2
:102DE00008B90D20F7E6206A48446062022D02D13E
:102DF000A069400007E0207E00F00100A16901EB1E
:102E0000410100EB51000290E169029800F2FF10CD
:102E1000B1EB502F01D20D20DDE64FF0FF302061E5
:102E20000020E060032D5CD1607194F8601094F88C
:102E3000610041EA0020504460616078012304F1A0
:102E40003001626900F0B6FBF0BB94F82E1294F8E2
:102E50002F0241EA00204AF65521884241D1332011
:102E6000005D01063220005D41EA00413120005D35
:102E700041EA002094F8301008432149884230D1BB
:102E800094F81702010694F8160241EA004194F8FA
:102E9000150241EA002094F81412084319498842A7
:102EA0001FD194F81F02010694F81E0241EA004166
:102EB00094F81D0241EA002094F81C120843E060D7
:102EC00094F81B02010600E00BE094F81A0241EAB4
:102ED000004194F8190241EA002094F818120843BE
:102EE0002061257008480088401C80B2064908808F
:102EF000E0800020E062207100BF6CE688000020C6
:102F000052526141727241618C0000200246891E5A
:102F10009069801E884201D8002070479378906A9B
:102F200001FB0300F9E72DE9F04704468946B9F1B2
:102F3000000F06D1E76817B1A069B84211D8012780
:102F40000FE04946204601F056FB0646022E02D20B
:102F50000120BDE8F087A069B04201D93046F8E70A
:102F60004F463D4600BF6D1CA069A84204D802250B
:102F7000BD4201D90020ECE72946204601F03BFB89
:102F8000064606B909E0701C08B1012E01D1304691
:102F9000DFE7BD42E7D10020DBE700BF6FF0704202
:102FA0002946204601F00FFE8046B8F1000F08D1F7
:102FB000B9F1000F05D02A464946204601F003FE2C
:102FC0008046B8F1000F09D1E5602069401C68B166
:102FD0002069401E20610120607107E0B8F1010FF7
:102FE00002D14FF0FF3000E0012005462846B0E74F
:102FF0002DE9F35F009886690B222021304601F00D
:103000009FFD00200546804682464FF00809019842
:10301000D0F800B000BF50460AF1010A1BF800408A
:10302000202C03DD2F2C01D05C2C00D152E02E2C63
:1030300001D0C8450ED3B9F1080F01D12E2C02D012
:103040000620BDE8FC9F4FF008084FF00B09A806CA
:10305000050EE0E7802C01DB45F00305812C1DDB2C
:10306000FE2C1BDC50460AF1010A1BF80070402FB1
:1030700001DB7E2F03DD802F05DBFE2F03DCA9F1B2
:103080000100404501D80620DBE7404608F1010871
:103090003454404608F1010837541AE0214622A072
:1030A000FFF772FD08B10620CBE7412C04DB5A2C58
:1030B00002DC45F0020508E0612C06DB7A2C04DC1A
:1030C00045F00105A4F12000C4B2404608F1010812
:1030D0003454A0E700BF0BEB0A0101980160202CDB
:1030E00001DC042000E000200446B8F1000F01D10B
:1030F0000620A6E73078E52801D105203070B9F127
:10310000080F01D1A806050E05F00300012801D122
:1031100044F0100405F00C00042801D144F0080428
:10312000F47200208DE70000222A2B2C3A3B3C3D14
:103130003E3F5B5D7C7F000000B597B001214805F4
:10314000FFF7B8F801214807FFF7D4F80121084636
:10315000FFF7B0F81020159003208DF858000020DC
:103160008DF85B0015A92A48FEF75EFAFDF7BAFF55
:10317000242011900020129014902648FDF7FEFFA5
:103180004FF06060029024480390244804904FF46C
:1031900080600690002009900A9040200590002051
:1031A00007904FF48060089080100B9040020C90C4
:1031B00000200D9001200E9000200F90109002A989
:1031C0001448FEF7C7F84FF4A060FFF767F8102027
:1031D0008DF8040001208DF805008DF806008DF8AB
:1031E000070001A8FFF71EF801210A48FDF7BAFF02
:1031F000012218210748FEF78FF811A90020FDF7DA
:103200007DFF01210020FDF743FF17B000BD000046
:1032100000000240886002401074004084510008A1
:103220002DE9F04104460021204600F02AF9054628
:1032300015B12846BDE8F08100BF2169206801F082
:1032400089FC054605B116E0666937780FB9042593
:1032500011E0F07A00F0080030B90B223046A16985
:1032600001F04EFC00B906E00021204600F006F80F
:103270000546002DE1D000BF2846DBE72DE9F041EF
:1032800004468846E088401C86B20EB1206910B919
:103290000420BDE8F08106F00F0000286FD12069FE
:1032A000401C2061E06828B920680089B04266DCD3
:1032B0000420EEE720688078401E00EA16100028FF
:1032C0005DD1E168206801F096F90546012D01D82D
:1032D0000220DEE7681C08B90120DAE7206880696F
:1032E000A84246D8B8F1000F01D10420D1E7E16827
:1032F0002068FFF718FE05460DB90720C9E7012D24
:1033000001D10220C5E7681C08B90120C1E70021EE
:10331000206801F01FFC08B10120BAE7216801F123
:1033200030004FF40072002101F00AFC29462068A9
:10333000FFF7ECFD2168C862002710E0012021683A
:1033400008710021206801F005FC08B10120A0E708
:103350002068C06A401C2168C862781CC7B2206817
:103360008078B842EADC2068C06AC01B2168C86265
:1033700000BFE56029462068FFF7C8FD2061E680B0
:103380002068303006F00F0100EB41106061002032
:103390007FE72DE9F041044604251BE02169206800
:1033A00001F0D8FB054605B117E067693E780EB914
:1033B000042512E0E52E06D02E2E04D0F87A00F077
:1033C000080000B909E000212046FFF757FF054635
:1033D00005B102E020690028E0D100BF0DB1002056
:1033E00020612846BDE8F0812DE9F0410446002126
:1033F000204600F046F80546ADB900BF21692068B7
:1034000001F0A8FB054605B10CE060690678E52EE1
:1034100000D006B906E001212046FFF72FFF054640
:10342000002DEBD000BF9DB92169206801F092FB0F
:1034300005466DB9676920220021384601F080FBFE
:103440000B223846A16901F06EFB0120216808714A
:103450002846BDE8F08170B50446E188204600F0BA
:1034600010F805465DB92169206801F073FB054637
:103470002DB9E5206169087001202168087128468E
:1034800070BD2DE9F04104460E46E680A568012D89
:1034900003D020688069A84202D80220BDE8F081EC
:1034A0002DB920680078032801D12068456A65B9E4
:1034B000E56020680089B04201DC0220EEE7206868
:1034C000406A00EB1610206120E020688078070138
:1034D00012E02946206801F08EF80546681C08B9FC
:1034E0000120DBE7022D03D320688069A84201D8C0
:1034F0000220D3E7F01B86B2BE42EADAE560294635
:103500002068FFF703FD00EB1610206120683030C3
:1035100006F00F0100EB411060610020BEE770B5BE
:10352000054625B1012D0AD0022D0CD109E0FEF788
:103530007DFA04460CB9002070BD0120FCE7012093
:10354000FAE70120F8E70120F6E7000070B506462B
:103550000C4615460EB1042070BD1548FEF700F963
:103560000F2C22D2DFE804F0080A211321191A1BBC
:1035700021211C1D1E1F20000020EDE70C48406C7F
:103580000B49896CB0FBF1F028600020E4E70848A3
:10359000B0F8480028800020DEE706E005E004E0FF
:1035A00003E002E001E000E000BF00BF0420D3E739
:1035B000702600202DE9F0410646884617461C4635
:1035C00014B90420BDE8F08126B1012E15D0022ED9
:1035D00015D113E0012C05D141463846FEF7D4FC45
:1035E000054605E0224641463846FEF78BFC054677
:1035F0000DB90020E6E70120E4E701E000E000BFAC
:1036000000BF0120DEE7014621B1012904D00229D3
:1036100006D103E0002070470020FCE70020FAE715
:1036200000BF00BF0120F6E72DE9F04106468846BD
:1036300017461C4614B90420BDE8F08116B1022ECD
:1036400014D112E0012C05D141463846FEF782FD27
:10365000054605E0224641463846FEF7E7FC0546AA
:103660000DB90020E8E70120E6E700E000BF00BF59
:103670000120E1E770B50446204600F0A4FD0546B0
:103680000DB900202060284670BD2DE9F0470446A2
:103690000E46A188206801F05BFD8246BAF1000F5A
:1036A00002D05046BDE8F087A07900F0800008B154
:1036B0000220F7E7E068B04204D2A07900F00200EF
:1036C00000B9E668D4F808904FF00008C4F8088004
:1036D000002E77D0206880784702B9F1000F11D012
:1036E000701EB0FBF7F1A9F10100B0FBF7F08142C9
:1036F00008D3A9F10100791E8843A060A068361A9A
:10370000656918E02569ADB900212068FFF70BFC59
:103710000546012D05D1A07940F08000A07102205E
:10372000C0E7681C28B9A07940F08000A071012092
:10373000B8E725616561002D44D029E0A07900F04B
:10374000020038B129462068FFF7EDFB054635B980
:103750003E461FE02946206800F04DFF0546681CE4
:1037600028B9A07940F08000A07101209AE7012DCE
:1037700003D920688069A84205D8A07940F080006C
:10378000A07102208EE76561A0683844A060F61B36
:10379000BE42D3D800BFA0683044A060C6F3080082
:1037A00068B129462068FFF7B1FB8046B8F1000FE9
:1037B00006D1A07940F08000A071022072E701E0FC
:1037C00008EB56282089C0F3080050B3A069404593
:1037D00027D0A07900F0400090B1216848780123FB
:1037E00004F12401A269FFF71FFF28B1A07940F07E
:1037F0008000A071012055E7A07920F04000A07161
:10380000216848780123424604F12401FFF7D2FEE3
:1038100028B1A07940F08000A071012042E7C4F8EF
:103820001880D4E90201884205D9A068E060A07937
:1038300040F02000A071504634E700002DE9F74F1A
:103840008CB090460C98012803DB0B200FB0BDE82C
:10385000F08FFE490C9851F820000290029808B9A8
:103860000C20F3E70021029801700C980C900C9842
:10387000FFF755FE0190019800F0010008B1032008
:10388000E4E7019800F0040008B10A20DEE704AA8A
:1038900001210C98FFF75AFE10B90498802801D234
:1038A0000120D3E70D9808B1002000E03F208246B8
:1038B0000498A0EB0A000490A8F1010000EA0800B7
:1038C00008B14FF00008B8F1000F13D14FF4FA61BE
:1038D0000498B0FBF1F00A904FF0000901E009F103
:1038E0000109DB4830F819100A988142F7D8D94805
:1038F00030F819804FEA5828B8F1000F01D14FF085
:103900000108B8F1800F01D94FF080080498B0FB8E
:10391000F8F7012540F6F670874200D302254FF6EE
:10392000F670874200D30325032D0AD1082000EB4F
:10393000870000F2FF10460A4FF0200B0020039092
:1039400011E0012D05D107EB4700401C4008C01CC9
:1039500001E07800001D064606F2FF10460A4FF00F
:10396000010B202003900AEB0B00079007983044CE
:1039700006900399069808440590059840440499D8
:10398000884201D90E2061E709AA03210C98FFF7AC
:10399000DDFD28B9099818B10998B0F5004F01D993
:1039A00001200990099905980844401E491E884342
:1039B000099009990598081A0990032D06D10998CC
:1039C0008344099907980844079001E00998064440
:1039D0000498A0EB0B00811B0398081AB0FBF8F7C2
:1039E000022D03D140F6F670874205D3032D05D191
:1039F0004FF6F670874201D20E2027E70D9810B1DE
:103A0000F0200B905EE00498504400904FF4007258
:103A100000210298303001F093F8029800F5F77415
:103A20008020207001206070A0700020E0708A4922
:103A3000009888420FD23F210098B0FBF1F0FF219F
:103A4000B0FBF1F000900098E0713F21009841EA4E
:103A50009000A07103E0FF20A071FF21E171FE2022
:103A60006071032D08D00498B0F5803F01D2042086
:103A700000E00620207101E00C2020713F20207220
:103A800000216172A172E172049820730498010A06
:103A900061730498010CA1730498010EE173552021
:103AA00084F84000AA2141200155012300220299F7
:103AB00030310C98FFF7B8FD08B10120C6E6F820B8
:103AC0000B9000BF029800F130044FF40072002107
:103AD000204601F035F80B2260A1204601F023F8C2
:103AE0004FF4007984F80B904FEA1921217384F880
:103AF0000D8084F80EB04FEA1B21E1730120207481
:103B0000032D01D1002001E04FF40070814684F8BC
:103B100011904FEA1921A1740498B0F5803F05D2A5
:103B20000498E0740498010A217510E0049884F860
:103B300020000498C0F30721212001550498C0F308
:103B40000741222001550498010E232001550B98AE
:103B500060753F20207600216176FF20A076E17617
:103B600084F81CA04FEA1A2161774FEA1A41A17725
:103B70004FEA1A61E17700F0B0FD0990032D3ED1C4
:103B8000099884F843000998C0F30721442001559F
:103B90000998C0F30741452001550998010E4620B8
:103BA000015584F82460C6F3072125200155C6F38A
:103BB000074126200155310E27200155022084F8A7
:103BC0002C0000212D2001552E2001552F200155BC
:103BD000012084F8300031200155062084F832009D
:103BE00033200155802084F84000292084F84200C9
:103BF00013221DA104F1470000F095FF1FE0099872
:103C000084F827000998C0F3072128200155099856
:103C1000C0F30741292001550998010E2A200155BA
:103C2000A675310AE175802084F82400292084F8E3
:103C30002600132211A104F12B0000F074FF55207F
:103C400084F8FE01AA2140F2FF1021E08800002044
:103C5000045200081A5200080004FB00EBFE904DCD
:103C600053444F53352E30004E4F204E414D45208A
:103C70002020204641543332202020004E4F204E39
:103C8000414D452020202046415420202020200066
:103C900001550123524621460C98FFF7C5FC08B197
:103CA0000120D3E5032D06D101230AF106022146A6
:103CB0000C98FFF7B9FC079808904FF0000961E0F5
:103CC0004FF400720021204600F03AFF0B98099053
:103CD000032D14D0012D01D1614801E06FF0FF00E8
:103CE000099908430990099820700998000A6070A2
:103CF0000998000CA0700998000EE07019E009986E
:103D000060F0FF000990099820700998000A60701F
:103D10000998000CA0700998000EE070FF20207137
:103D2000FF216171A171E17120726172A1720F2195
:103D3000E1720898411C02460123089121460C9823
:103D4000FFF772FC08B1012080E54FF400720021FA
:103D5000204600F0F5FE012009900EE00898411C75
:103D600002460123089121460C98FFF75DFC08B13B
:103D700001206BE50998401C09900998B042EDD3E9
:103D800009F10109B9F1000F9AD0032D01D1404684
:103D900000E00398814600BF0898411C02460123B9
:103DA000089121460C98FFF73FFC08B101204DE532
:103DB000A9F10100B0F10009EED1032D46D1552043
:103DC00084F8FE01AA2140F2FF1001555220207014
:103DD00060706120A0704120E070722084F8E401DE
:103DE000722140F2E51001554121401C015561212D
:103DF000401C0155781E84F8E801C0F3072140F209
:103E0000E9100155781EC0F307414FF4F5700155D4
:103E1000781E010E40F2EB100155FF2084F8EC01F2
:103E2000FF2140F2ED100155401C0155401C015589
:103E300001230AF1010221460C98FFF7F5FB01234B
:103E40000AF1070221460C98FFF7EEFB002211460B
:103E50000C98FFF77BFB08B10120F7E40020F5E4A4
:103E600000FFFF000246012A01DB0B2070470748D4
:103E700050F822300BB10020187009B100200870F2
:103E8000024840F822100020F0E7000088000020DF
:103E90002DE9F7438AB0054616460020286006F053
:103EA0001F0626F0010203A90BA8FEF777FE0746BE
:103EB000CDF824D027B903A80B9900F040FB0746A2
:103EC000089C0FB904B9062706F01C00002858D03A
:103ED0004FB1042F03D103A8FFF786FA074646F037
:103EE0000806089C09E006F0040008B1082704E071
:103EF000E07A00F0110000B10727002F40D106F052
:103F0000080000283CD000F0E8FB804684F80E80D2
:103F10004FEA1821E1734FEA184121744FEA186102
:103F200061740020E072207700216177A177E1774A
:103F3000A17EE07E41EA0021227D607D42EA0020F0
:103F400041EA00490020A0760021E17620756175E4
:103F5000012003990871B9F1000F11D00398D0F82E
:103F60002C804946039800F0C9FE074647B9A9F1DD
:103F700001000399C8604146039800F0EBFD074635
:103F80000EE06FB9E07A00F0100008B1042707E0F6
:103F900006F0020020B1E07A00F0010000B107272E
:103FA00047B906F0080008B146F020060398C06A39
:103FB000E8612C62F7B9AE71A17EE07E41EA002192
:103FC000227D607D42EA002041EA00402861E07FD6
:103FD0000106A07F41EA0041607F41EA0020217F85
:103FE0000843E8600020A860A8610398286003984F
:103FF000C088A88038460DB0BDE8F0832DE9FF4F9A
:1040000083B0044615469A46DDF810B00020CAF881
:104010000000A188206801F09BF80290029818B176
:10402000029807B0BDE8F08FA07900F0800008B1D9
:104030000220F6E7A07900F0010008B90720F0E7B8
:10404000D4E90210401A00900098854200D9009DE2
:10405000B4E02089C0F3080000287AD12068807875
:10406000401EA16800EA512000F0FF09B9F1000FDD
:104070001CD1A06808B9206903E06169206800F0DC
:10408000BAFA01900198012805D8A07940F0800083
:10409000A0710220C5E70198401C28B9A07940F022
:1040A0008000A0710120BCE701986061616920680F
:1040B000FEF72CFF06462EB9A07940F08000A071D3
:1040C0000220AEE74E444FEA5528B8F1000F2DD03C
:1040D00009EB080021688978884203D92068807834
:1040E000A0EB090808F0FF032168487832465946DA
:1040F000FFF760FA28B1A07940F08000A07101209C
:104100008FE7A07900F0400068B1A069801B4045AE
:1041100009D2A169891B0BEB41204FF4007204F115
:10412000240100F000FD4FEA48273DE0A07900F0AF
:10413000400098B121684878012304F12401A26964
:10414000FFF772FA30B1A07940F08000A071012031
:1041500067E716E0A07920F04000A071A069B042A6
:104160000ED0216848780123324604F12401FFF77C
:1041700021FA28B1A07940F08000A071012050E719
:10418000A6612089C0F30800C0F50077AF4200D9CE
:104190002F462089C0F3080204F1240011183A4682
:1041A000584600F0C0FC00BFBB44A0683844A06083
:1041B000DAF800003844CAF80000ED1B002D7FF447
:1041C00048AF00202DE72DE9F0410446A188206882
:1041D00000F0BEFF0746002F4FD1A07900F020006D
:1041E00000284AD0A07900F0400078B121684878D2
:1041F000012304F12401A269FFF716FA10B101208E
:10420000BDE8F081A07920F04000A071E16920684C
:1042100000F0A0FC0746002F2FD1256AE87A40F075
:104220002000E872207B2877A089010A6977E0687E
:10423000010CA977E068010EE977207CA876208A36
:10424000010AE9762069000C28752069010E69755C
:1042500000F043FA0646AE75310AE975310C29764D
:10426000310E6976A07920F02000A071012021682C
:104270000871206800F074FE07463846C0E771B543
:1042800091B001220AA911A8FEF788FC0446002C6F
:104290004BD1CDF840D00AA8119900F050F904464E
:1042A00000BF002C41D10F9D0DB9062404E0E87A2F
:1042B00000F0010000B10724A97EE87E41EA002158
:1042C0002A7D687D42EA002041EA0046E4B9E87AA6
:1042D00000F01000C0B1022E01D2022414E01C2212
:1042E0000AA903A800F01FFC0596022103A8FFF706
:1042F000C8F8044644B903A8FFF74BF8044604B9CC
:104300000724042C00D100247CB90AA8FFF7A3F8E5
:10431000044654B926B131460A9800F0EFFC044631
:104320001CB90A9800F01CFE0446204612B070BD6D
:104330002DE9FF4F83B0044615469B460498019033
:104340000020CBF80000A188206800F001FF029057
:10435000029818B1029807B0BDE8F08FA07900F07C
:10436000800008B10220F6E7A07900F0020008B949
:104370000720F0E7E0682844E168884200D2002581
:10438000CDE02089C0F30800002877D1206880782C
:10439000401EA16800EA512000F0FF0ABAF1000FA8
:1043A0002AD1A06858B9D4F81080B8F1000F0BD109
:1043B00000212068FEF7B7FD8046206104E06169B6
:1043C0002068FEF7B0FD8046B8F1000F00D1A9E0EB
:1043D000B8F1010F05D1A07940F08000A071022052
:1043E000B9E708F1010028B9A07940F08000A07178
:1043F0000120B0E7C4F81480A07900F0400090B12B
:1044000021684878012304F12401A269FFF70CF91F
:1044100028B1A07940F08000A07101209BE7A0792D
:1044200020F04000A07161692068FEF76FFD06462C
:104430002EB9A07940F08000A07102208BE756448D
:104440004FEA5529B9F1000F2FD00AEB0900216876
:104450008978884203D920688078A0EB0A0909F09E
:10446000FF032168487832460199FFF7DDF830B143
:10447000A07940F08000A07101206CE72CE0A069D9
:10448000801B48450ED2A069801B019A02EB402197
:104490004FF4007204F1240000F045FBA07920F0F5
:1044A0004000A0714FEA49272DE0A069B04212D028
:1044B000D4E9020188420ED22168487801233246AD
:1044C00004F12401FFF776F828B1A07940F08000CC
:1044D000A07101203FE7A6612089C0F30800C0F564
:1044E0000077AF4200D92F462189C1F3080204F1B9
:1044F000240150183A46019900F015FBA07940F0CC
:104500004000A07100BF019838440190A068384471
:10451000A060DBF800003844CBF80000ED1B002D54
:104520007FF42FAF00BFD4E90201884201D9A0680F
:10453000E060A07940F02000A07100200BE72DE999
:10454000F3410446019800782F2803D001980078A1
:104550005C2802D10198401C01900020A0600198C5
:104560000078202807D200212046FEF78AFF064661
:10457000002060612FE000BF01A92046FEF738FD52
:10458000064606B126E02046FEF74AFE0646A0692A
:10459000C77A46B1042E00D01CE000BF07F004002B
:1045A00000B9052616E007F0040000B112E06569C5
:1045B000E87A00F0100008B905260BE0A97EE87E35
:1045C00041EA00212A7D687D42EA002041EA00405C
:1045D000A060D1E700BF3046BDE8FC818A68002AB0
:1045E00001DCFCF720B9521E8A604A68C0B2531C35
:1045F0004B60107070472DE9F04105460C46022CC7
:1046000002D3A869A04202D80120BDE8F081287831
:10461000012804D002282CD003285AD13DE0274697
:1046200007EB5707286A00EB5721284600F092FA5B
:1046300000B14EE0C7F3080105F1300010F8018029
:104640007F1C286A00EB5721284600F083FA00B14E
:104650003FE0C7F3080105F13000405C48EA00285C
:1046600004F0010010B14FEA1810CEE7C8F30B00B8
:10467000CBE7286A00EB1421284600F06BFA00B162
:1046800027E040F2FF1000EA440105F130000E1867
:104690003078717840EA0120B7E7286A00EBD4113E
:1046A000284600F057FA00B113E040F2FF1000EA8C
:1046B000840105F130000E18F0780006B17840EA68
:1046C0000140717840EA01203178084320F07040C1
:1046D0009BE700BF4FF0FF3097E7002070470000D6
:1046E0001CB501210220FDF7E5FD4FF4704000905C
:1046F00001208DF8040000208DF8060003208DF8BD
:10470000050000208DF8070069460248FCF78CFF81
:104710001CBD00000004024010B54FF409721A4994
:104720001A48FBF7A9FE4FF4097219491948FBF71B
:10473000A3FE4FF4097218491848FBF79DFE4FF489
:10474000097217491748FBF797FE0F4890F8900831
:10475000154908700C48D0F89408144908600A48B4
:10476000D0F89808124908600748D0F89C08114909
:1047700008600548D0F8A0080F4908600248D0F842
:10478000A4080E49086010BDC81D0020CC020020FE
:10479000EC1F0020F004002010220020140700204D
:1047A0003424002038090020480000204C0000205C
:1047B0005000002054000020580000205C00002021
:1047C00010B50120FDF74AFE45F25550FCF7C2FF37
:1047D0000320FCF7B3FF4FF47A70FCF7B5FFFCF74A
:1047E000A5FFFCF79BFF10BD90B0FFF779FFFCF72A
:1047F00043FE00F01BFCFEF79FFC00F0B3FA00F054
:104800003FFC00F015FBFFF7DBFF002211461046CE
:10481000FFF714F89B49087000BF9A4800780028F9
:10482000FBD19949FFF71EFB9849087000BF9748D4
:1048300000780028FBD10121FCF73EFC132294A153
:104840009648FFF725FB964B40F6A80295499348FA
:10485000FFF7D4FBFFF760FF13E1934800780028CF
:1048600073D19248006880B99148924A126850F812
:10487000221001228D48FFF70BFB8F4908708948F1
:10488000D0F82C128948FEF700FF8B4800780028EA
:1048900059D18A48006887490968884253D0884BB3
:1048A00040F6480287498148FFF7A8FB8648006820
:1048B00080B98648864A126850F822100A22824837
:1048C000FFF7E6FA834908707648D0F850147E481E
:1048D000FEF7DBFE7F48007830B97F4B40F6480298
:1048E00078497948FFF724FD7548006840F648018B
:1048F00088420ED26D48FEF7BDFE6D496D4A1268C2
:1049000051F82200FFF7BBFC6A480068401C694967
:10491000086068480068052802D1002065490860E1
:1049200069488068B0F1004F0DD96748FEF7A2FED4
:1049300067480068401C664908600846006805280A
:10494000A6D1002008608BE0FFE75F48006828B12F
:104950005D48FEF78FFE00205D4908605F480068F3
:10496000E8B95A485E4A126850F8221001225B48A2
:10497000FFF78EFA5B4908704A48D0F8741657481A
:10498000FEF783FE5748007848B95748574A1268DF
:1049900050F82210564B04225048FFF72FFB514885
:1049A0000078002852D15248006805904E484F497F
:1049B000096850F82100039001A94E48FCF7CAFC91
:1049C00000214C48FCF7CEFB01214A48FCF7CAFB0A
:1049D000012202214848FDF753FD4548006804289C
:1049E0000ED23E48FEF746FE31493D4A126851F864
:1049F0002200FFF744FC3A480068401C3849086030
:104A00003A480068401C3949086008460068022896
:104A100001D1002008603148006848B13248334A6B
:104A2000126850F82210324B04222C48FFF7E6FAA5
:104A300000BF4FF020512F48FCF74CFC0028F8D065
:104A40004FF020512B48FCF773FB09E0002024496C
:104A50000860154908704DF6DD512848FDF76BFFD9
:104A60000E48FEF707FE132209A10C48FFF710FAC3
:104A70000B4B40F6A8020B490848FFF759FCFCF71E
:104A800055FEEAE6240000209C00002025000020BE
:104A90007265636F72642E74787400005C0B002082
:104AA0003C000020C81D002048000020F004002029
:104AB0006000002050000020270000204C00002053
:104AC0003000002080150020140700207400002012
:104AD0005400002028000020340000203809002065
:104AE0005800002029000020400000205C00002029
:104AF00038000020B8600240003C00400010014037
:104B0000F0B503461C460D46002000BF161EA2F15C
:104B1000010207D014F8017B15F801CBA7EB0C06B6
:104B2000301EF3D0F0BD70B503460C4603E014F818
:104B3000015B03F8015B151EA2F10102F7D170BD04
:104B400030B5034601E003F8011B141EA2F1010277
:104B5000F9D130BD2DE9F04104460D46E66AAE427A
:104B60002FD0207908B360780123324604F1300158
:104B7000FEF75AFD10B10120BDE8F0810020207140
:104B8000D4E907100844B0420FD9E7780AE0E06999
:104B9000064460780123324604F13001FEF744FDFB
:104BA000781EC7B2012FF2DC00BF55B16078012337
:104BB0002A4604F13001FEF7FDFC08B10120DBE7D5
:104BC000E5620020D8E72DE9F04705460E46174676
:104BD000022E02D3A869B04202D84FF002088AE040
:104BE0002878012804D0022841D003287DD154E040
:104BF000B14609EB5909286A00EB59212846FFF70D
:104C0000A9FF8046B8F1000F00D071E0C9F3080198
:104C100005F130000C1806F0010020B1F9B220783F
:104C200061F31F1000E03846207009F101090120EE
:104C30002871286A00EB59212846FFF78BFF804630
:104C4000B8F1000F00D053E0C9F3080105F13000BE
:104C50000C1806F0010010B1C7F3071005E020782A
:104C600000F0F000C7F303210843207040E0286AF9
:104C700000EB16212846FFF76DFF8046B8F1000FC4
:104C800000D035E040F2FF1000EA460105F13000A7
:104C90000C182770380A60702AE0286A00EBD611D9
:104CA0002846FFF757FF8046B8F1000F00D01FE0FD
:104CB00040F2FF1000EA860105F130000C18E078A0
:104CC0000006A17840EA0140617840EA012021789D
:104CD000084300F0704007432770380A6070380CB2
:104CE000A070380EE07003E0FFE74FF0020800BF4D
:104CF00000BF012028714046BDE8F0872DE9F04152
:104D000004460E46022E02D3A069B04201D8022703
:104D100025E000271FE031462046FFF76CFC0546E2
:104D200005B91BE0012D01D1022717E0681C08B965
:104D3000012713E0002231462046FFF744FF0746D3
:104D400007B10BE02069401C20B12069401C2061A4
:104D5000012060712E46A069B042DCD800BF384601
:104D6000BDE8F08100B587B001218803FDF7C2FAE4
:104D700001210620FDF79EFA2A48FCF7B9FB2A48D4
:104D8000FCF7B6FB05220A212648FCF795FC052214
:104D900002212548FCF790FC052203212248FCF75C
:104DA0008BFC02208DF818008DF8190000208DF87A
:104DB0001A0001208DF81B008002059005A91948F2
:104DC000FCF732FC0420059005A91748FCF72CFCE1
:104DD0000820059005A91448FCF726FC1348FDF7A8
:104DE00059FB0020ADF80000ADF80400ADF8060056
:104DF000ADF808004FF40070ADF80A003820ADF8A7
:104E00000C000020ADF80E000720ADF81000694638
:104E10000648FDF7A5FB01210448FDF725FB07B077
:104E200000BD0000000402400008024000380040BD
:104E300000B597B00121C803FDF75CFA01210420F9
:104E4000FDF738FA01214805FDF734FA3F48FCF731
:104E50004FFB06220A213D48FCF72EFC06220B21BF
:104E60003A48FCF729FC06220C213848FCF724FCC0
:104E700002208DF858008DF8590000208DF85A0056
:104E800001208DF85B008002159015A92F48FCF7D2
:104E9000CBFB4FF40060159015A92C48FCF7C4FB20
:104EA0004FF48050159015A92848FCF7BDFB284801
:104EB000FDF7F0FA0020ADF80400ADF80800ADF8F9
:104EC0000A00ADF80C004FF40070ADF80E00382069
:104ED000ADF810000020ADF812000720ADF8140066
:104EE00001A91C48FDF73CFB01A91948FDF738FB57
:104EF00001211748FDF7B8FA1748FCF73FF90020E1
:104F0000119001201290002013900E904FF48060B9
:104F10000C9000200F900E480C3007900020149049
:104F20000D900B904FF480301090002006904020A0
:104F300009900A48089006A90748FCF70BFA0121D6
:104F40000548FCF70FF917B000BD0000000802404B
:104F5000003C004000380040B8600240800D002056
:104F600070B5044600212046FFF7F4FD0546002DEC
:104F700059D1207803284FD1607900284CD00020E7
:104F8000E0624FF40072002104F13000FFF7D8FD19
:104F9000552184F82E12AA2184F82F12522084F869
:104FA000300052213120015561213220015541212B
:104FB00033200155722184F8141284F8151241210E
:104FC00084F81612612184F81712217C84F81812D3
:104FD000208A010A84F819122069010C84F81A1237
:104FE0002069010E84F81B12217B84F81C12A08911
:104FF000010A84F81D12E068010C84F81E12E068B2
:10500000010E84F81F126078012304F130016269F7
:10501000FEF70AFB00206071607800221146FEF75F
:1050200095FA00B10125284670BD00003EB5002468
:1050300001210846FDF75EF90F4800680F49B0FBF3
:10504000F1F0401E84B240F299200190ADF800408A
:105050000020ADF80800ADF8020069464FF080402E
:10506000FDF780FB20214806FDF772FB0121880730
:10507000FDF762FB3EBD00000000002000127A0038
:1050800000B587B001210846FDF714F90121102071
:10509000FDF750F9072209212A48FCF70DFB0722EA
:1050A0000A212848FCF708FB02208DF804000320A1
:1050B0008DF8050000208DF8060001208DF807000E
:1050C0004002009069461F48FCF7AEFA4FF480603A
:1050D000009069461B48FCF7A7FA01211A48FDF722
:1050E0001FFC1A4803900020ADF81000ADF8120024
:1050F000ADF81400ADF818000C20ADF8160003A9A7
:105100001148FDF7A3FB4FF4A060FDF7C7F8252079
:105110008DF8080002208DF809008DF80A000120A2
:105120008DF80B0002A8FDF77DF801210648FDF778
:105130005BFB012240F225510348FDF761FB07B0FC
:1051400000BD00000000024000100140D01B5000D4
:1051500070B504460D4624B1207810B1E088A8420D
:1051600001D0092070BD6078FEF74DFA00F0010013
:1051700008B10320F6E70020F4E74FF04070E1EEBD
:10518000100A7047FF0700008F0900000F0B000096
:10519000710C0000AA0D0000A60E0000630F0000B5
:1051A000D80F0000FF0F0000D80F0000630F0000B1
:1051B000A60E0000A70D0000710C00000F0B0000F0
:1051C0008F090000FF0700006F060000EF040000D9
:1051D0008D03000057020000580100009B000000F2
:1051E0002600000000000000260000009B000000D8
:1051F00058010000570200008D030000EF0400007A
:105200006F06000000040002000180004000200042
:105210001000080004000200000000800040002090
:1052200000100008004000200010000800040002E8
:1052300030313233343536373839414243444546CC
:1052400040305800303132333435363738396162C6
:1052500063646566403078000400000800000000C8
:105260000000000200010000103A7474003A7474E7
:10527000003A7474000000006666312E7478740081
:1052800066312E74787400006666322E747874006D
:1052900066322E74787400006666332E747874005B
:1052A00066332E74787400006666342E7478740049
:1052B00066342E74787400006666352E7478740037
:1052C00066352E7478740000E85200080000002053
:1052D0009C000000C4010008845300089C000020CA
:1052E0008C2D0000E0010008007A030A0000000095
:1052F0000000000001020304060708090000000086
:10530000010203040102030406070809000000006B
:10531000000000000000000000000000000000008D
:105320000000000000000000800D0020801100201F
:10533000000000000000000000000000000000006D
:105340000000000000000000805200089052000899
:10535000A0520008B0520008C0520008785200085D
:105360008852000898520008A8520008B852000855
:10537000000000000000000000000000000000002D
:045380000000000029
:040000050800018965
:00000001FF
